{
  "_format": "hh-sol-artifact-1",
  "contractName": "NFT",
  "sourceName": "contracts/NFT.sol",
  "abi": [
    {
      "inputs": [
        {
          "internalType": "address",
          "name": "marketplaceAddress",
          "type": "address"
        }
      ],
      "stateMutability": "nonpayable",
      "type": "constructor"
    },
    {
      "anonymous": false,
      "inputs": [
        {
          "indexed": true,
          "internalType": "address",
          "name": "owner",
          "type": "address"
        },
        {
          "indexed": true,
          "internalType": "address",
          "name": "approved",
          "type": "address"
        },
        {
          "indexed": true,
          "internalType": "uint256",
          "name": "tokenId",
          "type": "uint256"
        }
      ],
      "name": "Approval",
      "type": "event"
    },
    {
      "anonymous": false,
      "inputs": [
        {
          "indexed": true,
          "internalType": "address",
          "name": "owner",
          "type": "address"
        },
        {
          "indexed": true,
          "internalType": "address",
          "name": "operator",
          "type": "address"
        },
        {
          "indexed": false,
          "internalType": "bool",
          "name": "approved",
          "type": "bool"
        }
      ],
      "name": "ApprovalForAll",
      "type": "event"
    },
    {
      "anonymous": false,
      "inputs": [
        {
          "indexed": true,
          "internalType": "address",
          "name": "from",
          "type": "address"
        },
        {
          "indexed": true,
          "internalType": "address",
          "name": "to",
          "type": "address"
        },
        {
          "indexed": true,
          "internalType": "uint256",
          "name": "tokenId",
          "type": "uint256"
        }
      ],
      "name": "Transfer",
      "type": "event"
    },
    {
      "inputs": [
        {
          "internalType": "address",
          "name": "to",
          "type": "address"
        },
        {
          "internalType": "uint256",
          "name": "tokenId",
          "type": "uint256"
        }
      ],
      "name": "approve",
      "outputs": [],
      "stateMutability": "nonpayable",
      "type": "function"
    },
    {
      "inputs": [
        {
          "internalType": "address",
          "name": "owner",
          "type": "address"
        }
      ],
      "name": "balanceOf",
      "outputs": [
        {
          "internalType": "uint256",
          "name": "",
          "type": "uint256"
        }
      ],
      "stateMutability": "view",
      "type": "function"
    },
    {
      "inputs": [
        {
          "internalType": "string",
          "name": "tokenURI",
          "type": "string"
        }
      ],
      "name": "createToken",
      "outputs": [
        {
          "internalType": "uint256",
          "name": "",
          "type": "uint256"
        }
      ],
      "stateMutability": "nonpayable",
      "type": "function"
    },
    {
      "inputs": [
        {
          "internalType": "uint256",
          "name": "tokenId",
          "type": "uint256"
        }
      ],
      "name": "getApproved",
      "outputs": [
        {
          "internalType": "address",
          "name": "",
          "type": "address"
        }
      ],
      "stateMutability": "view",
      "type": "function"
    },
    {
      "inputs": [
        {
          "internalType": "address",
          "name": "owner",
          "type": "address"
        },
        {
          "internalType": "address",
          "name": "operator",
          "type": "address"
        }
      ],
      "name": "isApprovedForAll",
      "outputs": [
        {
          "internalType": "bool",
          "name": "",
          "type": "bool"
        }
      ],
      "stateMutability": "view",
      "type": "function"
    },
    {
      "inputs": [
        {
          "internalType": "bool",
          "name": "value",
          "type": "bool"
        },
        {
          "internalType": "uint256",
          "name": "tokenId",
          "type": "uint256"
        }
      ],
      "name": "modifyRental",
      "outputs": [],
      "stateMutability": "nonpayable",
      "type": "function"
    },
    {
      "inputs": [],
      "name": "name",
      "outputs": [
        {
          "internalType": "string",
          "name": "",
          "type": "string"
        }
      ],
      "stateMutability": "view",
      "type": "function"
    },
    {
      "inputs": [
        {
          "internalType": "uint256",
          "name": "tokenId",
          "type": "uint256"
        }
      ],
      "name": "ownerOf",
      "outputs": [
        {
          "internalType": "address",
          "name": "",
          "type": "address"
        }
      ],
      "stateMutability": "view",
      "type": "function"
    },
    {
      "inputs": [
        {
          "internalType": "address",
          "name": "from",
          "type": "address"
        },
        {
          "internalType": "address",
          "name": "to",
          "type": "address"
        },
        {
          "internalType": "uint256",
          "name": "tokenId",
          "type": "uint256"
        }
      ],
      "name": "performTokenTransfer",
      "outputs": [],
      "stateMutability": "nonpayable",
      "type": "function"
    },
    {
      "inputs": [
        {
          "internalType": "uint256",
          "name": "",
          "type": "uint256"
        }
      ],
      "name": "rental",
      "outputs": [
        {
          "internalType": "bool",
          "name": "",
          "type": "bool"
        }
      ],
      "stateMutability": "view",
      "type": "function"
    },
    {
      "inputs": [
        {
          "internalType": "address",
          "name": "from",
          "type": "address"
        },
        {
          "internalType": "address",
          "name": "to",
          "type": "address"
        },
        {
          "internalType": "uint256",
          "name": "tokenId",
          "type": "uint256"
        }
      ],
      "name": "safeTransferFrom",
      "outputs": [],
      "stateMutability": "nonpayable",
      "type": "function"
    },
    {
      "inputs": [
        {
          "internalType": "address",
          "name": "from",
          "type": "address"
        },
        {
          "internalType": "address",
          "name": "to",
          "type": "address"
        },
        {
          "internalType": "uint256",
          "name": "tokenId",
          "type": "uint256"
        },
        {
          "internalType": "bytes",
          "name": "_data",
          "type": "bytes"
        }
      ],
      "name": "safeTransferFrom",
      "outputs": [],
      "stateMutability": "nonpayable",
      "type": "function"
    },
    {
      "inputs": [
        {
          "internalType": "address",
          "name": "operator",
          "type": "address"
        },
        {
          "internalType": "bool",
          "name": "approved",
          "type": "bool"
        }
      ],
      "name": "setApprovalForAll",
      "outputs": [],
      "stateMutability": "nonpayable",
      "type": "function"
    },
    {
      "inputs": [
        {
          "internalType": "bytes4",
          "name": "interfaceId",
          "type": "bytes4"
        }
      ],
      "name": "supportsInterface",
      "outputs": [
        {
          "internalType": "bool",
          "name": "",
          "type": "bool"
        }
      ],
      "stateMutability": "view",
      "type": "function"
    },
    {
      "inputs": [],
      "name": "symbol",
      "outputs": [
        {
          "internalType": "string",
          "name": "",
          "type": "string"
        }
      ],
      "stateMutability": "view",
      "type": "function"
    },
    {
      "inputs": [
        {
          "internalType": "uint256",
          "name": "tokenId",
          "type": "uint256"
        }
      ],
      "name": "tokenURI",
      "outputs": [
        {
          "internalType": "string",
          "name": "",
          "type": "string"
        }
      ],
      "stateMutability": "view",
      "type": "function"
    },
    {
      "inputs": [
        {
          "internalType": "address",
          "name": "from",
          "type": "address"
        },
        {
          "internalType": "address",
          "name": "to",
          "type": "address"
        },
        {
          "internalType": "uint256",
          "name": "tokenId",
          "type": "uint256"
        }
      ],
      "name": "transferFrom",
      "outputs": [],
      "stateMutability": "nonpayable",
      "type": "function"
    }
  ],
  "bytecode": "0x60806040523480156200001157600080fd5b506040516200393738038062003937833981810160405281019062000037919062000285565b6040518060400160405280600b81526020017f52656e7461626c654e46540000000000000000000000000000000000000000008152506040518060400160405280600381526020017f52465400000000000000000000000000000000000000000000000000000000008152508160009080519060200190620000bb929190620001be565b508060019080519060200190620000d4929190620001be565b5050506200010b7f2eefb5c64bac1eb7477a03aea9cd74473d5f300ae2b3ab4da354909d639c890060001b620001bb60201b60201c565b6200013f7f6ab7c748d6ea9d62309652b4b72bb300ad2e6c5d161e212986b8a959e769901d60001b620001bb60201b60201c565b620001737f58d1e25682ebda13805d9f995f526df8ac69da41391e21b2bf129b824215a47a60001b620001bb60201b60201c565b80600860006101000a81548173ffffffffffffffffffffffffffffffffffffffff021916908373ffffffffffffffffffffffffffffffffffffffff1602179055505062000364565b50565b828054620001cc90620002e5565b90600052602060002090601f016020900481019282620001f057600085556200023c565b82601f106200020b57805160ff19168380011785556200023c565b828001600101855582156200023c579182015b828111156200023b5782518255916020019190600101906200021e565b5b5090506200024b91906200024f565b5090565b5b808211156200026a57600081600090555060010162000250565b5090565b6000815190506200027f816200034a565b92915050565b6000602082840312156200029857600080fd5b6000620002a8848285016200026e565b91505092915050565b6000620002be82620002c5565b9050919050565b600073ffffffffffffffffffffffffffffffffffffffff82169050919050565b60006002820490506001821680620002fe57607f821691505b602082108114156200031557620003146200031b565b5b50919050565b7f4e487b7100000000000000000000000000000000000000000000000000000000600052602260045260246000fd5b6200035581620002b1565b81146200036157600080fd5b50565b6135c380620003746000396000f3fe608060405234801561001057600080fd5b506004361061010b5760003560e01c80636352211e116100a2578063a22cb46511610071578063a22cb465146102dc578063a2932c53146102f8578063b88d4fde14610314578063c87b56dd14610330578063e985e9c5146103605761010b565b80636352211e1461022e57806365c138501461025e57806370a082311461028e57806395d89b41146102be5761010b565b806323b872dd116100de57806323b872dd146101aa57806332b95aa9146101c657806342842e0e146101e257806345576f94146101fe5761010b565b806301ffc9a71461011057806306fdde0314610140578063081812fc1461015e578063095ea7b31461018e575b600080fd5b61012a60048036038101906101259190612531565b610390565b60405161013791906129be565b60405180910390f35b610148610472565b60405161015591906129d9565b60405180910390f35b610178600480360381019061017391906125c4565b610504565b6040516101859190612957565b60405180910390f35b6101a860048036038101906101a391906124b9565b610589565b005b6101c460048036038101906101bf91906123b3565b6106a1565b005b6101e060048036038101906101db91906124f5565b610701565b005b6101fc60048036038101906101f791906123b3565b61094b565b005b61021860048036038101906102139190612583565b61096b565b6040516102259190612c3b565b60405180910390f35b610248600480360381019061024391906125c4565b610c0a565b6040516102559190612957565b60405180910390f35b610278600480360381019061027391906125c4565b610cbc565b60405161028591906129be565b60405180910390f35b6102a860048036038101906102a3919061234e565b610cdc565b6040516102b59190612c3b565b60405180910390f35b6102c6610d94565b6040516102d391906129d9565b60405180910390f35b6102f660048036038101906102f1919061247d565b610e26565b005b610312600480360381019061030d91906123b3565b610e3c565b005b61032e60048036038101906103299190612402565b611068565b005b61034a600480360381019061034591906125c4565b6110ca565b60405161035791906129d9565b60405180910390f35b61037a60048036038101906103759190612377565b61121c565b60405161038791906129be565b60405180910390f35b60007f80ac58cd000000000000000000000000000000000000000000000000000000007bffffffffffffffffffffffffffffffffffffffffffffffffffffffff1916827bffffffffffffffffffffffffffffffffffffffffffffffffffffffff1916148061045b57507f5b5e139f000000000000000000000000000000000000000000000000000000007bffffffffffffffffffffffffffffffffffffffffffffffffffffffff1916827bffffffffffffffffffffffffffffffffffffffffffffffffffffffff1916145b8061046b575061046a826112b0565b5b9050919050565b60606000805461048190612e91565b80601f01602080910402602001604051908101604052809291908181526020018280546104ad90612e91565b80156104fa5780601f106104cf576101008083540402835291602001916104fa565b820191906000526020600020905b8154815290600101906020018083116104dd57829003601f168201915b5050505050905090565b600061050f8261131a565b61054e576040517f08c379a000000000000000000000000000000000000000000000000000000000815260040161054590612b5b565b60405180910390fd5b6004600083815260200190815260200160002060009054906101000a900473ffffffffffffffffffffffffffffffffffffffff169050919050565b600061059482610c0a565b90508073ffffffffffffffffffffffffffffffffffffffff168373ffffffffffffffffffffffffffffffffffffffff161415610605576040517f08c379a00000000000000000000000000000000000000000000000000000000081526004016105fc90612bbb565b60405180910390fd5b8073ffffffffffffffffffffffffffffffffffffffff16610624611386565b73ffffffffffffffffffffffffffffffffffffffff16148061065357506106528161064d611386565b61121c565b5b610692576040517f08c379a000000000000000000000000000000000000000000000000000000000815260040161068990612a9b565b60405180910390fd5b61069c838361138e565b505050565b6106b26106ac611386565b82611447565b6106f1576040517f08c379a00000000000000000000000000000000000000000000000000000000081526004016106e890612bdb565b60405180910390fd5b6106fc838383611525565b505050565b61072d7f91041bce7fafd1502bffc34d2944746c93ca64c3dad4e1047dca26ecbbff06fc60001b611781565b6107597fed6b537d1e281b41f66b7aef64de79b105ec9c217a4b0c81a7cbdcd11e6cf72e60001b611781565b6107857fc7c69131ed30fd6ae572b934af6e5c6123f27ab82710efb2f1b6569aa13479e660001b611781565b6107b17f365d430bbe339a2ff72d1f0e7769e534e17b92fd48f41fbc4d4f3d67a696939660001b611781565b600860009054906101000a900473ffffffffffffffffffffffffffffffffffffffff1673ffffffffffffffffffffffffffffffffffffffff163373ffffffffffffffffffffffffffffffffffffffff1614610841576040517f08c379a000000000000000000000000000000000000000000000000000000000815260040161083890612bfb565b60405180910390fd5b61086d7f53df67bda7383a379c39dd993fc40dc6e00a02428f5e5138d3a2d4e4cfd57af860001b611781565b6108997fba917988e0bd09a235069c011f1b8ed4ba4f2055fce60e62e0192f6b06086ac960001b611781565b6108c47e83452b853eeba566809aa9e961ee3002efdaa47f67b12cadbb3d868217934960001b611781565b6108f07f578a595269f9fe5bbc6e1745346bdb73c1ce98be271d6f7489d86e5e279d127760001b611781565b61091c7f75fd70ea22c6c16b99c6f31f988682545dd156acaff662b06c9bf053cd25fa0960001b611781565b816009600083815260200190815260200160002060006101000a81548160ff0219169083151502179055505050565b61096683838360405180602001604052806000815250611068565b505050565b60006109997f4a3b239360d9d7a86b0c0a20836216570a1fe198d1c24a37878e08ab2e8d7d8660001b611781565b6109c57f5f9c21826a6d6187c3827f6a6bca16e2be337517ee046f8fa1161f7b710aa97f60001b611781565b6109f17f9a2f991eea0237624deeeb69df804e5d4f73fb6d67ef78168fe59971dae35b1860001b611781565b6109fb6007611784565b610a277f2ece2c543f822746381df77a8576025b7593a310a285a0d6a03da25ba5ed364d60001b611781565b610a537f2e92f20e6b237af3a4ec988844144aa9753597a683a3fdc922dae9742b3df77460001b611781565b6000610a5f600761179a565b9050610a8d7f6a200f15c569bb4cdfa2fe1ca754a8df4b3b0284e82d22e81790c8fbe13e4da760001b611781565b610ab97f84ea5c08467e95b68d3e40240705e7df2233b989214d31680a2d44012d1adb9060001b611781565b610ac333826117a8565b610aef7fa69b087af0138afe6b335acdc1b53098760aa766baa2c5098e052368e1b5a9ee60001b611781565b610b1b7f44ea2b4496e6e4cc40e00600bb02aef28aa7b06c1aa032796f2cb0fbdedd64fc60001b611781565b610b258184611976565b610b517f7f589b2ca759461a6bf59bb19b03bf6cc8109723a3c65525ffa532a6fb15f70a60001b611781565b610b7d7fa99e120298097102c0998068664e3cc72467b3273c45deb9d80aac04a64f978860001b611781565b610ba9600860009054906101000a900473ffffffffffffffffffffffffffffffffffffffff1682610589565b610bd57f44c2288a8c0589daf582322b4bbe52472fa6060e539b1c0e654b9e1377bf841a60001b611781565b610c017fa8df07594a83e70a6c1bb75b91b46416bdc586ab81f7c8ba24dde308937abe4c60001b611781565b80915050919050565b6000806002600084815260200190815260200160002060009054906101000a900473ffffffffffffffffffffffffffffffffffffffff169050600073ffffffffffffffffffffffffffffffffffffffff168173ffffffffffffffffffffffffffffffffffffffff161415610cb3576040517f08c379a0000000000000000000000000000000000000000000000000000000008152600401610caa90612adb565b60405180910390fd5b80915050919050565b60096020528060005260406000206000915054906101000a900460ff1681565b60008073ffffffffffffffffffffffffffffffffffffffff168273ffffffffffffffffffffffffffffffffffffffff161415610d4d576040517f08c379a0000000000000000000000000000000000000000000000000000000008152600401610d4490612abb565b60405180910390fd5b600360008373ffffffffffffffffffffffffffffffffffffffff1673ffffffffffffffffffffffffffffffffffffffff168152602001908152602001600020549050919050565b606060018054610da390612e91565b80601f0160208091040260200160405190810160405280929190818152602001828054610dcf90612e91565b8015610e1c5780601f10610df157610100808354040283529160200191610e1c565b820191906000526020600020905b815481529060010190602001808311610dff57829003601f168201915b5050505050905090565b610e38610e31611386565b83836119ea565b5050565b610e687f91041bce7fafd1502bffc34d2944746c93ca64c3dad4e1047dca26ecbbff06fc60001b611781565b610e947fed6b537d1e281b41f66b7aef64de79b105ec9c217a4b0c81a7cbdcd11e6cf72e60001b611781565b610ec07fc7c69131ed30fd6ae572b934af6e5c6123f27ab82710efb2f1b6569aa13479e660001b611781565b610eec7f365d430bbe339a2ff72d1f0e7769e534e17b92fd48f41fbc4d4f3d67a696939660001b611781565b600860009054906101000a900473ffffffffffffffffffffffffffffffffffffffff1673ffffffffffffffffffffffffffffffffffffffff163373ffffffffffffffffffffffffffffffffffffffff1614610f7c576040517f08c379a0000000000000000000000000000000000000000000000000000000008152600401610f7390612bfb565b60405180910390fd5b610fa87f53df67bda7383a379c39dd993fc40dc6e00a02428f5e5138d3a2d4e4cfd57af860001b611781565b610fd47fba917988e0bd09a235069c011f1b8ed4ba4f2055fce60e62e0192f6b06086ac960001b611781565b6110007f2a397801e11c6f07144645c0f85d48733db3bb51a03c2282a586f3976abc640f60001b611781565b61102c7f0bbd0cddd18af1c8eb5241d8131b3b79bcbcd8f45a877cec92482328723eff0d60001b611781565b6110587fe074c21462a8c62dd0134292e2c8794869e2ce40903066b88da4480efdbeb6bc60001b611781565b611063838383611525565b505050565b611079611073611386565b83611447565b6110b8576040517f08c379a00000000000000000000000000000000000000000000000000000000081526004016110af90612bdb565b60405180910390fd5b6110c484848484611b57565b50505050565b60606110d58261131a565b611114576040517f08c379a000000000000000000000000000000000000000000000000000000000815260040161110b90612b3b565b60405180910390fd5b600060066000848152602001908152602001600020805461113490612e91565b80601f016020809104026020016040519081016040528092919081815260200182805461116090612e91565b80156111ad5780601f10611182576101008083540402835291602001916111ad565b820191906000526020600020905b81548152906001019060200180831161119057829003601f168201915b5050505050905060006111be611bb3565b90506000815114156111d4578192505050611217565b6000825111156112095780826040516020016111f1929190612933565b60405160208183030381529060405292505050611217565b61121284611bca565b925050505b919050565b6000600560008473ffffffffffffffffffffffffffffffffffffffff1673ffffffffffffffffffffffffffffffffffffffff16815260200190815260200160002060008373ffffffffffffffffffffffffffffffffffffffff1673ffffffffffffffffffffffffffffffffffffffff16815260200190815260200160002060009054906101000a900460ff16905092915050565b60007f01ffc9a7000000000000000000000000000000000000000000000000000000007bffffffffffffffffffffffffffffffffffffffffffffffffffffffff1916827bffffffffffffffffffffffffffffffffffffffffffffffffffffffff1916149050919050565b60008073ffffffffffffffffffffffffffffffffffffffff166002600084815260200190815260200160002060009054906101000a900473ffffffffffffffffffffffffffffffffffffffff1673ffffffffffffffffffffffffffffffffffffffff1614159050919050565b600033905090565b816004600083815260200190815260200160002060006101000a81548173ffffffffffffffffffffffffffffffffffffffff021916908373ffffffffffffffffffffffffffffffffffffffff160217905550808273ffffffffffffffffffffffffffffffffffffffff1661140183610c0a565b73ffffffffffffffffffffffffffffffffffffffff167f8c5be1e5ebec7d5bd14f71427d1e84f3dd0314c0f7b2291e5b200ac8c7c3b92560405160405180910390a45050565b60006114528261131a565b611491576040517f08c379a000000000000000000000000000000000000000000000000000000000815260040161148890612a7b565b60405180910390fd5b600061149c83610c0a565b90508073ffffffffffffffffffffffffffffffffffffffff168473ffffffffffffffffffffffffffffffffffffffff16148061150b57508373ffffffffffffffffffffffffffffffffffffffff166114f384610504565b73ffffffffffffffffffffffffffffffffffffffff16145b8061151c575061151b818561121c565b5b91505092915050565b8273ffffffffffffffffffffffffffffffffffffffff1661154582610c0a565b73ffffffffffffffffffffffffffffffffffffffff161461159b576040517f08c379a000000000000000000000000000000000000000000000000000000000815260040161159290612b7b565b60405180910390fd5b600073ffffffffffffffffffffffffffffffffffffffff168273ffffffffffffffffffffffffffffffffffffffff16141561160b576040517f08c379a000000000000000000000000000000000000000000000000000000000815260040161160290612a3b565b60405180910390fd5b611616838383611c71565b61162160008261138e565b6001600360008573ffffffffffffffffffffffffffffffffffffffff1673ffffffffffffffffffffffffffffffffffffffff16815260200190815260200160002060008282546116719190612da7565b925050819055506001600360008473ffffffffffffffffffffffffffffffffffffffff1673ffffffffffffffffffffffffffffffffffffffff16815260200190815260200160002060008282546116c89190612d20565b92505081905550816002600083815260200190815260200160002060006101000a81548173ffffffffffffffffffffffffffffffffffffffff021916908373ffffffffffffffffffffffffffffffffffffffff160217905550808273ffffffffffffffffffffffffffffffffffffffff168473ffffffffffffffffffffffffffffffffffffffff167fddf252ad1be2c89b69c2b068fc378daa952ba7f163c4a11628f55a4df523b3ef60405160405180910390a4505050565b50565b6001816000016000828254019250508190555050565b600081600001549050919050565b600073ffffffffffffffffffffffffffffffffffffffff168273ffffffffffffffffffffffffffffffffffffffff161415611818576040517f08c379a000000000000000000000000000000000000000000000000000000000815260040161180f90612b1b565b60405180910390fd5b6118218161131a565b15611861576040517f08c379a000000000000000000000000000000000000000000000000000000000815260040161185890612a1b565b60405180910390fd5b61186d60008383611c71565b6001600360008473ffffffffffffffffffffffffffffffffffffffff1673ffffffffffffffffffffffffffffffffffffffff16815260200190815260200160002060008282546118bd9190612d20565b92505081905550816002600083815260200190815260200160002060006101000a81548173ffffffffffffffffffffffffffffffffffffffff021916908373ffffffffffffffffffffffffffffffffffffffff160217905550808273ffffffffffffffffffffffffffffffffffffffff16600073ffffffffffffffffffffffffffffffffffffffff167fddf252ad1be2c89b69c2b068fc378daa952ba7f163c4a11628f55a4df523b3ef60405160405180910390a45050565b61197f8261131a565b6119be576040517f08c379a00000000000000000000000000000000000000000000000000000000081526004016119b590612afb565b60405180910390fd5b806006600084815260200190815260200160002090805190602001906119e5929190612172565b505050565b8173ffffffffffffffffffffffffffffffffffffffff168373ffffffffffffffffffffffffffffffffffffffff161415611a59576040517f08c379a0000000000000000000000000000000000000000000000000000000008152600401611a5090612a5b565b60405180910390fd5b80600560008573ffffffffffffffffffffffffffffffffffffffff1673ffffffffffffffffffffffffffffffffffffffff16815260200190815260200160002060008473ffffffffffffffffffffffffffffffffffffffff1673ffffffffffffffffffffffffffffffffffffffff16815260200190815260200160002060006101000a81548160ff0219169083151502179055508173ffffffffffffffffffffffffffffffffffffffff168373ffffffffffffffffffffffffffffffffffffffff167f17307eab39ab6107e8899845ad3d59bd9653f200f220920489ca2b5937696c3183604051611b4a91906129be565b60405180910390a3505050565b611b62848484611525565b611b6e84848484611e16565b611bad576040517f08c379a0000000000000000000000000000000000000000000000000000000008152600401611ba4906129fb565b60405180910390fd5b50505050565b606060405180602001604052806000815250905090565b6060611bd58261131a565b611c14576040517f08c379a0000000000000000000000000000000000000000000000000000000008152600401611c0b90612b9b565b60405180910390fd5b6000611c1e611bb3565b90506000815111611c3e5760405180602001604052806000815250611c69565b80611c4884611fad565b604051602001611c59929190612933565b6040516020818303038152906040525b915050919050565b611c9d7f19919b9447564ae0ce39e2b92f020328130c2e7c3eb740bee3899f37019262a460001b611781565b611cc97f97a68a540104cd3dd14b4423fd5362cbf621e21d6edd8cd98e90df66f0813f1d60001b611781565b611cf57fb6250699eba8078878e5d13998804492e6575a0bc7aae659d79708df5ae8a43060001b611781565b611d217fa51848158162158a38e8d116f4eef0f5ef82c69ec6989810ab149289ecb2c6c260001b611781565b6009600082815260200190815260200160002060009054906101000a900460ff1615611d82576040517f08c379a0000000000000000000000000000000000000000000000000000000008152600401611d7990612c1b565b60405180910390fd5b611dae7f5d53844c2adaca374c8fdc50382bccb45efa83ef8a3cd7e90143623b72e00b3460001b611781565b611dda7fba7dfe6c48eb37edea0ec4df5f94c9b51d6b46d22b5cb5077012c91c986a000160001b611781565b611e067f31ecd53681fdd96555af93bdd985d88939335c291b1d93859e107c04a5e3c71a60001b611781565b611e1183838361215a565b505050565b6000611e378473ffffffffffffffffffffffffffffffffffffffff1661215f565b15611fa0578373ffffffffffffffffffffffffffffffffffffffff1663150b7a02611e60611386565b8786866040518563ffffffff1660e01b8152600401611e829493929190612972565b602060405180830381600087803b158015611e9c57600080fd5b505af1925050508015611ecd57506040513d601f19601f82011682018060405250810190611eca919061255a565b60015b611f50573d8060008114611efd576040519150601f19603f3d011682016040523d82523d6000602084013e611f02565b606091505b50600081511415611f48576040517f08c379a0000000000000000000000000000000000000000000000000000000008152600401611f3f906129fb565b60405180910390fd5b805181602001fd5b63150b7a0260e01b7bffffffffffffffffffffffffffffffffffffffffffffffffffffffff1916817bffffffffffffffffffffffffffffffffffffffffffffffffffffffff191614915050611fa5565b600190505b949350505050565b60606000821415611ff5576040518060400160405280600181526020017f30000000000000000000000000000000000000000000000000000000000000008152509050612155565b600082905060005b6000821461202757808061201090612ef4565b915050600a826120209190612d76565b9150611ffd565b60008167ffffffffffffffff811115612069577f4e487b7100000000000000000000000000000000000000000000000000000000600052604160045260246000fd5b6040519080825280601f01601f19166020018201604052801561209b5781602001600182028036833780820191505090505b5090505b6000851461214e576001826120b49190612da7565b9150600a856120c39190612f3d565b60306120cf9190612d20565b60f81b81838151811061210b577f4e487b7100000000000000000000000000000000000000000000000000000000600052603260045260246000fd5b60200101907effffffffffffffffffffffffffffffffffffffffffffffffffffffffffffff1916908160001a905350600a856121479190612d76565b945061209f565b8093505050505b919050565b505050565b600080823b905060008111915050919050565b82805461217e90612e91565b90600052602060002090601f0160209004810192826121a057600085556121e7565b82601f106121b957805160ff19168380011785556121e7565b828001600101855582156121e7579182015b828111156121e65782518255916020019190600101906121cb565b5b5090506121f491906121f8565b5090565b5b808211156122115760008160009055506001016121f9565b5090565b600061222861222384612c7b565b612c56565b90508281526020810184848401111561224057600080fd5b61224b848285612e4f565b509392505050565b600061226661226184612cac565b612c56565b90508281526020810184848401111561227e57600080fd5b612289848285612e4f565b509392505050565b6000813590506122a081613531565b92915050565b6000813590506122b581613548565b92915050565b6000813590506122ca8161355f565b92915050565b6000815190506122df8161355f565b92915050565b600082601f8301126122f657600080fd5b8135612306848260208601612215565b91505092915050565b600082601f83011261232057600080fd5b8135612330848260208601612253565b91505092915050565b60008135905061234881613576565b92915050565b60006020828403121561236057600080fd5b600061236e84828501612291565b91505092915050565b6000806040838503121561238a57600080fd5b600061239885828601612291565b92505060206123a985828601612291565b9150509250929050565b6000806000606084860312156123c857600080fd5b60006123d686828701612291565b93505060206123e786828701612291565b92505060406123f886828701612339565b9150509250925092565b6000806000806080858703121561241857600080fd5b600061242687828801612291565b945050602061243787828801612291565b935050604061244887828801612339565b925050606085013567ffffffffffffffff81111561246557600080fd5b612471878288016122e5565b91505092959194509250565b6000806040838503121561249057600080fd5b600061249e85828601612291565b92505060206124af858286016122a6565b9150509250929050565b600080604083850312156124cc57600080fd5b60006124da85828601612291565b92505060206124eb85828601612339565b9150509250929050565b6000806040838503121561250857600080fd5b6000612516858286016122a6565b925050602061252785828601612339565b9150509250929050565b60006020828403121561254357600080fd5b6000612551848285016122bb565b91505092915050565b60006020828403121561256c57600080fd5b600061257a848285016122d0565b91505092915050565b60006020828403121561259557600080fd5b600082013567ffffffffffffffff8111156125af57600080fd5b6125bb8482850161230f565b91505092915050565b6000602082840312156125d657600080fd5b60006125e484828501612339565b91505092915050565b6125f681612ddb565b82525050565b61260581612ded565b82525050565b600061261682612cdd565b6126208185612cf3565b9350612630818560208601612e5e565b6126398161302a565b840191505092915050565b600061264f82612ce8565b6126598185612d04565b9350612669818560208601612e5e565b6126728161302a565b840191505092915050565b600061268882612ce8565b6126928185612d15565b93506126a2818560208601612e5e565b80840191505092915050565b60006126bb603283612d04565b91506126c68261303b565b604082019050919050565b60006126de601c83612d04565b91506126e98261308a565b602082019050919050565b6000612701602483612d04565b915061270c826130b3565b604082019050919050565b6000612724601983612d04565b915061272f82613102565b602082019050919050565b6000612747602c83612d04565b91506127528261312b565b604082019050919050565b600061276a603883612d04565b91506127758261317a565b604082019050919050565b600061278d602a83612d04565b9150612798826131c9565b604082019050919050565b60006127b0602983612d04565b91506127bb82613218565b604082019050919050565b60006127d3602e83612d04565b91506127de82613267565b604082019050919050565b60006127f6602083612d04565b9150612801826132b6565b602082019050919050565b6000612819603183612d04565b9150612824826132df565b604082019050919050565b600061283c602c83612d04565b91506128478261332e565b604082019050919050565b600061285f602983612d04565b915061286a8261337d565b604082019050919050565b6000612882602f83612d04565b915061288d826133cc565b604082019050919050565b60006128a5602183612d04565b91506128b08261341b565b604082019050919050565b60006128c8603183612d04565b91506128d38261346a565b604082019050919050565b60006128eb601e83612d04565b91506128f6826134b9565b602082019050919050565b600061290e602183612d04565b9150612919826134e2565b604082019050919050565b61292d81612e45565b82525050565b600061293f828561267d565b915061294b828461267d565b91508190509392505050565b600060208201905061296c60008301846125ed565b92915050565b600060808201905061298760008301876125ed565b61299460208301866125ed565b6129a16040830185612924565b81810360608301526129b3818461260b565b905095945050505050565b60006020820190506129d360008301846125fc565b92915050565b600060208201905081810360008301526129f38184612644565b905092915050565b60006020820190508181036000830152612a14816126ae565b9050919050565b60006020820190508181036000830152612a34816126d1565b9050919050565b60006020820190508181036000830152612a54816126f4565b9050919050565b60006020820190508181036000830152612a7481612717565b9050919050565b60006020820190508181036000830152612a948161273a565b9050919050565b60006020820190508181036000830152612ab48161275d565b9050919050565b60006020820190508181036000830152612ad481612780565b9050919050565b60006020820190508181036000830152612af4816127a3565b9050919050565b60006020820190508181036000830152612b14816127c6565b9050919050565b60006020820190508181036000830152612b34816127e9565b9050919050565b60006020820190508181036000830152612b548161280c565b9050919050565b60006020820190508181036000830152612b748161282f565b9050919050565b60006020820190508181036000830152612b9481612852565b9050919050565b60006020820190508181036000830152612bb481612875565b9050919050565b60006020820190508181036000830152612bd481612898565b9050919050565b60006020820190508181036000830152612bf4816128bb565b9050919050565b60006020820190508181036000830152612c14816128de565b9050919050565b60006020820190508181036000830152612c3481612901565b9050919050565b6000602082019050612c506000830184612924565b92915050565b6000612c60612c71565b9050612c6c8282612ec3565b919050565b6000604051905090565b600067ffffffffffffffff821115612c9657612c95612ffb565b5b612c9f8261302a565b9050602081019050919050565b600067ffffffffffffffff821115612cc757612cc6612ffb565b5b612cd08261302a565b9050602081019050919050565b600081519050919050565b600081519050919050565b600082825260208201905092915050565b600082825260208201905092915050565b600081905092915050565b6000612d2b82612e45565b9150612d3683612e45565b9250827fffffffffffffffffffffffffffffffffffffffffffffffffffffffffffffffff03821115612d6b57612d6a612f6e565b5b828201905092915050565b6000612d8182612e45565b9150612d8c83612e45565b925082612d9c57612d9b612f9d565b5b828204905092915050565b6000612db282612e45565b9150612dbd83612e45565b925082821015612dd057612dcf612f6e565b5b828203905092915050565b6000612de682612e25565b9050919050565b60008115159050919050565b60007fffffffff0000000000000000000000000000000000000000000000000000000082169050919050565b600073ffffffffffffffffffffffffffffffffffffffff82169050919050565b6000819050919050565b82818337600083830152505050565b60005b83811015612e7c578082015181840152602081019050612e61565b83811115612e8b576000848401525b50505050565b60006002820490506001821680612ea957607f821691505b60208210811415612ebd57612ebc612fcc565b5b50919050565b612ecc8261302a565b810181811067ffffffffffffffff82111715612eeb57612eea612ffb565b5b80604052505050565b6000612eff82612e45565b91507fffffffffffffffffffffffffffffffffffffffffffffffffffffffffffffffff821415612f3257612f31612f6e565b5b600182019050919050565b6000612f4882612e45565b9150612f5383612e45565b925082612f6357612f62612f9d565b5b828206905092915050565b7f4e487b7100000000000000000000000000000000000000000000000000000000600052601160045260246000fd5b7f4e487b7100000000000000000000000000000000000000000000000000000000600052601260045260246000fd5b7f4e487b7100000000000000000000000000000000000000000000000000000000600052602260045260246000fd5b7f4e487b7100000000000000000000000000000000000000000000000000000000600052604160045260246000fd5b6000601f19601f8301169050919050565b7f4552433732313a207472616e7366657220746f206e6f6e20455243373231526560008201527f63656976657220696d706c656d656e7465720000000000000000000000000000602082015250565b7f4552433732313a20746f6b656e20616c7265616479206d696e74656400000000600082015250565b7f4552433732313a207472616e7366657220746f20746865207a65726f2061646460008201527f7265737300000000000000000000000000000000000000000000000000000000602082015250565b7f4552433732313a20617070726f766520746f2063616c6c657200000000000000600082015250565b7f4552433732313a206f70657261746f7220717565727920666f72206e6f6e657860008201527f697374656e7420746f6b656e0000000000000000000000000000000000000000602082015250565b7f4552433732313a20617070726f76652063616c6c6572206973206e6f74206f7760008201527f6e6572206e6f7220617070726f76656420666f7220616c6c0000000000000000602082015250565b7f4552433732313a2062616c616e636520717565727920666f7220746865207a6560008201527f726f206164647265737300000000000000000000000000000000000000000000602082015250565b7f4552433732313a206f776e657220717565727920666f72206e6f6e657869737460008201527f656e7420746f6b656e0000000000000000000000000000000000000000000000602082015250565b7f45524337323155524953746f726167653a2055524920736574206f66206e6f6e60008201527f6578697374656e7420746f6b656e000000000000000000000000000000000000602082015250565b7f4552433732313a206d696e7420746f20746865207a65726f2061646472657373600082015250565b7f45524337323155524953746f726167653a2055524920717565727920666f722060008201527f6e6f6e6578697374656e7420746f6b656e000000000000000000000000000000602082015250565b7f4552433732313a20617070726f76656420717565727920666f72206e6f6e657860008201527f697374656e7420746f6b656e0000000000000000000000000000000000000000602082015250565b7f4552433732313a207472616e73666572206f6620746f6b656e2074686174206960008201527f73206e6f74206f776e0000000000000000000000000000000000000000000000602082015250565b7f4552433732314d657461646174613a2055524920717565727920666f72206e6f60008201527f6e6578697374656e7420746f6b656e0000000000000000000000000000000000602082015250565b7f4552433732313a20617070726f76616c20746f2063757272656e74206f776e6560008201527f7200000000000000000000000000000000000000000000000000000000000000602082015250565b7f4552433732313a207472616e736665722063616c6c6572206973206e6f74206f60008201527f776e6572206e6f7220617070726f766564000000000000000000000000000000602082015250565b7f43616c6c6572206d75737420626520636f6e7472616374416464726573730000600082015250565b7f52656e7461626c654e46543a207468697320746f6b656e2069732072656e746560008201527f6400000000000000000000000000000000000000000000000000000000000000602082015250565b61353a81612ddb565b811461354557600080fd5b50565b61355181612ded565b811461355c57600080fd5b50565b61356881612df9565b811461357357600080fd5b50565b61357f81612e45565b811461358a57600080fd5b5056fea2646970667358221220d762824e82111b4474cef3c7b1586ff107b655163eef68b2ddb025a8a6b46b7764736f6c63430008040033",
  "linkReferences": {},
  "deployedLinkReferences": {}
}