{
  "_format": "hh-sol-artifact-1",
  "contractName": "RentalMarket",
  "sourceName": "contracts/RentalMarket.sol",
  "abi": [
    {
      "inputs": [],
      "stateMutability": "nonpayable",
      "type": "constructor"
    },
    {
      "anonymous": false,
      "inputs": [
        {
          "indexed": true,
          "internalType": "uint256",
          "name": "itemId",
          "type": "uint256"
        },
        {
          "indexed": false,
          "internalType": "bool",
          "name": "isActive",
          "type": "bool"
        },
        {
          "indexed": true,
          "internalType": "address",
          "name": "NFTContract",
          "type": "address"
        },
        {
          "indexed": true,
          "internalType": "uint256",
          "name": "tokenId",
          "type": "uint256"
        },
        {
          "indexed": false,
          "internalType": "address",
          "name": "seller",
          "type": "address"
        },
        {
          "indexed": false,
          "internalType": "address",
          "name": "renter",
          "type": "address"
        },
        {
          "indexed": false,
          "internalType": "uint256",
          "name": "price",
          "type": "uint256"
        },
        {
          "indexed": false,
          "internalType": "uint256",
          "name": "expiresAt",
          "type": "uint256"
        }
      ],
      "name": "MarketItemCreated",
      "type": "event"
    },
    {
      "inputs": [
        {
          "internalType": "address",
          "name": "nftContract",
          "type": "address"
        },
        {
          "internalType": "uint256",
          "name": "tokenId",
          "type": "uint256"
        },
        {
          "internalType": "uint256",
          "name": "price",
          "type": "uint256"
        },
        {
          "internalType": "uint256",
          "name": "expiresAt",
          "type": "uint256"
        }
      ],
      "name": "createMarketItem",
      "outputs": [],
      "stateMutability": "payable",
      "type": "function"
    },
    {
      "inputs": [],
      "name": "fetchItemsClaimable",
      "outputs": [
        {
          "components": [
            {
              "internalType": "uint256",
              "name": "itemId",
              "type": "uint256"
            },
            {
              "internalType": "bool",
              "name": "isActive",
              "type": "bool"
            },
            {
              "internalType": "address",
              "name": "NFTContract",
              "type": "address"
            },
            {
              "internalType": "uint256",
              "name": "tokenId",
              "type": "uint256"
            },
            {
              "internalType": "address payable",
              "name": "seller",
              "type": "address"
            },
            {
              "internalType": "address",
              "name": "renter",
              "type": "address"
            },
            {
              "internalType": "uint256",
              "name": "price",
              "type": "uint256"
            },
            {
              "internalType": "uint256",
              "name": "expiresAt",
              "type": "uint256"
            }
          ],
          "internalType": "struct RentalMarket.MarketItem[]",
          "name": "",
          "type": "tuple[]"
        }
      ],
      "stateMutability": "view",
      "type": "function"
    },
    {
      "inputs": [],
      "name": "fetchMarketItems",
      "outputs": [
        {
          "components": [
            {
              "internalType": "uint256",
              "name": "itemId",
              "type": "uint256"
            },
            {
              "internalType": "bool",
              "name": "isActive",
              "type": "bool"
            },
            {
              "internalType": "address",
              "name": "NFTContract",
              "type": "address"
            },
            {
              "internalType": "uint256",
              "name": "tokenId",
              "type": "uint256"
            },
            {
              "internalType": "address payable",
              "name": "seller",
              "type": "address"
            },
            {
              "internalType": "address",
              "name": "renter",
              "type": "address"
            },
            {
              "internalType": "uint256",
              "name": "price",
              "type": "uint256"
            },
            {
              "internalType": "uint256",
              "name": "expiresAt",
              "type": "uint256"
            }
          ],
          "internalType": "struct RentalMarket.MarketItem[]",
          "name": "",
          "type": "tuple[]"
        }
      ],
      "stateMutability": "view",
      "type": "function"
    },
    {
      "inputs": [],
      "name": "fetchMyNFTs",
      "outputs": [
        {
          "components": [
            {
              "internalType": "uint256",
              "name": "itemId",
              "type": "uint256"
            },
            {
              "internalType": "bool",
              "name": "isActive",
              "type": "bool"
            },
            {
              "internalType": "address",
              "name": "NFTContract",
              "type": "address"
            },
            {
              "internalType": "uint256",
              "name": "tokenId",
              "type": "uint256"
            },
            {
              "internalType": "address payable",
              "name": "seller",
              "type": "address"
            },
            {
              "internalType": "address",
              "name": "renter",
              "type": "address"
            },
            {
              "internalType": "uint256",
              "name": "price",
              "type": "uint256"
            },
            {
              "internalType": "uint256",
              "name": "expiresAt",
              "type": "uint256"
            }
          ],
          "internalType": "struct RentalMarket.MarketItem[]",
          "name": "",
          "type": "tuple[]"
        }
      ],
      "stateMutability": "view",
      "type": "function"
    },
    {
      "inputs": [],
      "name": "fetchRentedNFTs",
      "outputs": [
        {
          "components": [
            {
              "internalType": "uint256",
              "name": "itemId",
              "type": "uint256"
            },
            {
              "internalType": "bool",
              "name": "isActive",
              "type": "bool"
            },
            {
              "internalType": "address",
              "name": "NFTContract",
              "type": "address"
            },
            {
              "internalType": "uint256",
              "name": "tokenId",
              "type": "uint256"
            },
            {
              "internalType": "address payable",
              "name": "seller",
              "type": "address"
            },
            {
              "internalType": "address",
              "name": "renter",
              "type": "address"
            },
            {
              "internalType": "uint256",
              "name": "price",
              "type": "uint256"
            },
            {
              "internalType": "uint256",
              "name": "expiresAt",
              "type": "uint256"
            }
          ],
          "internalType": "struct RentalMarket.MarketItem[]",
          "name": "",
          "type": "tuple[]"
        }
      ],
      "stateMutability": "view",
      "type": "function"
    },
    {
      "inputs": [
        {
          "internalType": "uint256",
          "name": "itemId",
          "type": "uint256"
        }
      ],
      "name": "finishRenting",
      "outputs": [],
      "stateMutability": "nonpayable",
      "type": "function"
    },
    {
      "inputs": [],
      "name": "getListingPrice",
      "outputs": [
        {
          "internalType": "uint256",
          "name": "",
          "type": "uint256"
        }
      ],
      "stateMutability": "view",
      "type": "function"
    },
    {
      "inputs": [
        {
          "internalType": "address",
          "name": "nftContract",
          "type": "address"
        },
        {
          "internalType": "uint256",
          "name": "itemId",
          "type": "uint256"
        }
      ],
      "name": "rentMarketItem",
      "outputs": [],
      "stateMutability": "payable",
      "type": "function"
    },
    {
      "inputs": [
        {
          "internalType": "uint256",
          "name": "_listingPrice",
          "type": "uint256"
        }
      ],
      "name": "setListingPrice",
      "outputs": [],
      "stateMutability": "nonpayable",
      "type": "function"
    }
  ],
  "bytecode": "0x60806040526658d15e1762800060055534801561001b57600080fd5b506001600055600480546001600160a01b03191633179055611962806100426000396000f3fe6080604052600436106100865760003560e01c8063599ba23411610059578063599ba234146100fe57806369bac17e146101135780637c726b69146101285780638c52e54814610148578063b8bb6d6e1461015b57600080fd5b80630f08efe01461008b57806312e85585146100b6578063202e3740146100d45780634de48be8146100e9575b600080fd5b34801561009757600080fd5b506100a061017b565b6040516100ad9190611762565b60405180910390f35b3480156100c257600080fd5b506005546040519081526020016100ad565b3480156100e057600080fd5b506100a0610454565b3480156100f557600080fd5b506100a0610643565b61011161010c3660046116c8565b610832565b005b34801561011f57600080fd5b506100a0610b8d565b34801561013457600080fd5b50610111610143366004611702565b610e25565b61011161015636600461169d565b610e90565b34801561016757600080fd5b50610111610176366004611702565b6111eb565b6060600061018860015490565b9050600061019560025490565b6001546101a2919061189c565b90506000808267ffffffffffffffff8111156101ce57634e487b7160e01b600052604160045260246000fd5b60405190808252806020026020018201604052801561020757816020015b6101f4611618565b8152602001906001900390816101ec5790505b5090506102396040518060400160405280600c81526020016b41646472657373205a65726f60a01b815250600061156d565b60005b8481101561044b57604080518082019091526007815266125d195b48125160ca1b602082015261028c9060066000610275856001611884565b8152602001908152602001600020600001546115b6565b60408051808201909152600b81526a24ba32b6902932b73a32b960a91b60208201526102e390600660006102c1856001611884565b81526020810191909152604001600020600401546001600160a01b031661156d565b600660006102f2836001611884565b81526020810191909152604001600020541580159061033b5750600060068161031c846001611884565b81526020810191909152604001600020600401546001600160a01b0316145b1561043957600061034d826001611884565b905061037f6040518060400160405280600e81526020016d125d195b4813db8813585c9ad95d60921b815250836115b6565b6000818152600660208181526040928390208351610100808201865282548252600183015460ff81161515948301949094529092046001600160a01b039081169483019490945260028101546060830152600381015484166080830152600481015490931660a0820152600583015460c08201529082015460e0820152845185908790811061041e57634e487b7160e01b600052603260045260246000fd5b6020908102919091010152610434600186611884565b945050505b80610443816118e3565b91505061023c565b50949350505050565b6060600061046160015490565b905060008060005b838110156104c4573360066000610481846001611884565b81526020810191909152604001600020600301546001600160a01b031614156104b2576104af600184611884565b92505b806104bc816118e3565b915050610469565b5060008267ffffffffffffffff8111156104ee57634e487b7160e01b600052604160045260246000fd5b60405190808252806020026020018201604052801561052757816020015b610514611618565b81526020019060019003908161050c5790505b50905060005b8481101561044b573360066000610545846001611884565b81526020810191909152604001600020600301546001600160a01b03161415610631576000610575826001611884565b6000818152600660208181526040928390208351610100808201865282548252600183015460ff81161515948301949094526001600160a01b03930483169481019490945260028101546060850152600381015482166080850152600481015490911660a0840152600581015460c08401529081015460e083015285519293509185908790811061061657634e487b7160e01b600052603260045260246000fd5b602090810291909101015261062c600186611884565b945050505b8061063b816118e3565b91505061052d565b6060600061065060015490565b905060008060005b838110156106b3573360066000610670846001611884565b81526020810191909152604001600020600401546001600160a01b031614156106a15761069e600184611884565b92505b806106ab816118e3565b915050610658565b5060008267ffffffffffffffff8111156106dd57634e487b7160e01b600052604160045260246000fd5b60405190808252806020026020018201604052801561071657816020015b610703611618565b8152602001906001900390816106fb5790505b50905060005b8481101561044b573360066000610734846001611884565b81526020810191909152604001600020600401546001600160a01b03161415610820576000610764826001611884565b6000818152600660208181526040928390208351610100808201865282548252600183015460ff81161515948301949094526001600160a01b03930483169481019490945260028101546060850152600381015482166080850152600481015490911660a0840152600581015460c08401529081015460e083015285519293509185908790811061080557634e487b7160e01b600052603260045260246000fd5b602090810291909101015261081b600186611884565b945050505b8061082a816118e3565b91505061071c565b6002600054141561085e5760405162461bcd60e51b81526004016108559061184d565b60405180910390fd5b6002600055816108b05760405162461bcd60e51b815260206004820152601c60248201527f5072696365206d757374206265206174206c65617374203120776569000000006044820152606401610855565b600554341461090d5760405162461bcd60e51b8152602060048201526024808201527f5072696365206d75737420626520657175616c20746f206c697374696e6720706044820152637269636560e01b6064820152608401610855565b61091b600180546001019055565b600061092660015490565b9050604051806101000160405280828152602001600015158152602001866001600160a01b03168152602001858152602001336001600160a01b0316815260200160006001600160a01b0316815260200184815260200183815250600660008381526020019081526020016000206000820151816000015560208201518160010160006101000a81548160ff02191690831515021790555060408201518160010160016101000a8154816001600160a01b0302191690836001600160a01b031602179055506060820151816002015560808201518160030160006101000a8154816001600160a01b0302191690836001600160a01b0316021790555060a08201518160040160006101000a8154816001600160a01b0302191690836001600160a01b0316021790555060c0820151816005015560e08201518160060155905050846001600160a01b03166323b872dd3330876040518463ffffffff1660e01b8152600401610ab5939291906001600160a01b039384168152919092166020820152604081019190915260600190565b600060405180830381600087803b158015610acf57600080fd5b505af1158015610ae3573d6000803e3d6000fd5b50506004546005546040516001600160a01b03909216935080156108fc029250906000818181858888f19350505050158015610b23573d6000803e3d6000fd5b50604080516000808252336020830152818301526060810185905260808101849052905185916001600160a01b0388169184917f90ff26942c17b6c2414e13d762404fd07deca541df68195b50d38a51bfa993b5919081900360a00190a450506001600055505050565b60606000610b9a60015490565b9050600080610bc96040518060400160405280600881526020016754696d65204e6f7760c01b815250426115b6565b60005b83811015610c4b5760066000610be3836001611884565b815260208101919091526040016000206001015460ff168015610c2657504260066000610c11846001611884565b81526020019081526020016000206006015411155b15610c3957610c36600184611884565b92505b80610c43816118e3565b915050610bcc565b50610c8360405180604001604052806015815260200174746f74616c20636c61696d61626c65206974656d7360581b815250836115b6565b60008267ffffffffffffffff811115610cac57634e487b7160e01b600052604160045260246000fd5b604051908082528060200260200182016040528015610ce557816020015b610cd2611618565b815260200190600190039081610cca5790505b50905060005b8481101561044b5760066000610d02836001611884565b815260208101919091526040016000206001015460ff168015610d4557504260066000610d30846001611884565b81526020019081526020016000206006015411155b15610e13576000610d57826001611884565b6000818152600660208181526040928390208351610100808201865282548252600183015460ff81161515948301949094526001600160a01b03930483169481019490945260028101546060850152600381015482166080850152600481015490911660a0840152600581015460c08401529081015460e0830152855192935091859087908110610df857634e487b7160e01b600052603260045260246000fd5b6020908102919091010152610e0e600186611884565b945050505b80610e1d816118e3565b915050610ceb565b6004546001600160a01b03163314610e8b5760405162461bcd60e51b815260206004820152602360248201527f4f6e6c79204f776e65722043616e2041636365737320546869732046756e637460448201526234b7b760e91b6064820152608401610855565b600555565b60026000541415610eb35760405162461bcd60e51b81526004016108559061184d565b600260008181558281526006602052604090206005810154910154348214610f45576040805162461bcd60e51b81526020600482015260248101919091527f506c65617365207375626d6974207468652061736b696e67207072696365206960448201527f6e206f7264657220746f20636f6d706c657465207468652070757263686173656064820152608401610855565b6040516331a9108f60e11b81526004810182905230906001600160a01b03861690636352211e9060240160206040518083038186803b158015610f8757600080fd5b505afa158015610f9b573d6000803e3d6000fd5b505050506040513d601f19601f82011682018060405250810190610fbf919061167a565b6001600160a01b0316146110215760405162461bcd60e51b8152602060048201526024808201527f5468697320546f6b656e204973204e6f7420417661696c61626c6520466f722060448201526314995b9d60e21b6064820152608401610855565b6000838152600660205260408082206003015490516001600160a01b03909116913480156108fc02929091818181858888f19350505050158015611069573d6000803e3d6000fd5b506040516323b872dd60e01b8152306004820152336024820152604481018290526001600160a01b038516906323b872dd90606401600060405180830381600087803b1580156110b857600080fd5b505af11580156110cc573d6000803e3d6000fd5b50506040516001602482015260448101849052600092506001600160a01b038716915060640160408051601f198184030181529181526020820180516001600160e01b03166332b95aa960e01b179052516111279190611746565b6000604051808303816000865af19150503d8060008114611164576040519150601f19603f3d011682016040523d82523d6000602084013e611169565b606091505b505090508061117757600080fd5b60008481526006602081905260409091200154611195904290611884565b6000858152600660208190526040909120908101919091556004810180546001600160a01b031916331790556001908101805460ff191690911790556111df600280546001019055565b50506001600055505050565b6002600054141561120e5760405162461bcd60e51b81526004016108559061184d565b6002600090815581815260066020526040902060048101546001600160a01b0316331480611240575080600601544210155b6112965760405162461bcd60e51b815260206004820152602160248201527f52656e7461626c654e46543a207468697320746f6b656e2069732072656e74656044820152601960fa1b6064820152608401610855565b600181015460ff166112df5760405162461bcd60e51b8152602060048201526012602482015271139195081a5cc81b9bdd081bdb881c995b9d60721b6044820152606401610855565b60018101805460ff19169081905560028201546040516000602482018190526044820192909252909161010090046001600160a01b03169060640160408051601f198184030181529181526020820180516001600160e01b03166332b95aa960e01b1790525161134f9190611746565b6000604051808303816000865af19150503d806000811461138c576040519150601f19603f3d011682016040523d82523d6000602084013e611391565b606091505b505090508061139f57600080fd5b60018201546004830154600384015460028501546040516001600160a01b0393841660248201529183166044830152606482015260009261010090049091169060840160408051601f198184030181529181526020820180516001600160e01b031663a2932c5360e01b179052516114179190611746565b6000604051808303816000865af19150503d8060008114611454576040519150601f19603f3d011682016040523d82523d6000602084013e611459565b606091505b505090508061146757600080fd5b60408051808201909152601f81527f52656e74657220416464726573732046726f6d20436f6e74726163742d3e2000602082015260048401546114b391906001600160a01b031661156d565b60408051808201909152601f81527f53656c6c657220416464726573732046726f6d20436f6e74726163742d3e2000602082015260038401546114ff91906001600160a01b031661156d565b61150d600380546001019055565b50505060009081526006602081905260408220828155600180820180546001600160a81b0319169055600282018490556003820180546001600160a01b031990811690915560048301805490911690556005820184905591018290559055565b6115b28282604051602401611583929190611801565b60408051601f198184030181529190526020810180516001600160e01b031663319af33360e01b1790526115f7565b5050565b6115b282826040516024016115cc92919061182b565b60408051601f198184030181529190526020810180516001600160e01b03166309710a9d60e41b1790525b80516a636f6e736f6c652e6c6f67602083016000808483855afa5050505050565b6040518061010001604052806000815260200160001515815260200160006001600160a01b031681526020016000815260200160006001600160a01b0316815260200160006001600160a01b0316815260200160008152602001600081525090565b60006020828403121561168b578081fd5b815161169681611914565b9392505050565b600080604083850312156116af578081fd5b82356116ba81611914565b946020939093013593505050565b600080600080608085870312156116dd578182fd5b84356116e881611914565b966020860135965060408601359560600135945092505050565b600060208284031215611713578081fd5b5035919050565b600081518084526117328160208601602086016118b3565b601f01601f19169290920160200192915050565b600082516117588184602087016118b3565b9190910192915050565b602080825282518282018190526000919060409081850190868401855b828110156117f45781518051855286810151151587860152858101516001600160a01b03908116878701526060808301519087015260808083015182169087015260a0808301519091169086015260c0808201519086015260e09081015190850152610100909301929085019060010161177f565b5091979650505050505050565b604081526000611814604083018561171a565b905060018060a01b03831660208301529392505050565b60408152600061183e604083018561171a565b90508260208301529392505050565b6020808252601f908201527f5265656e7472616e637947756172643a207265656e7472616e742063616c6c00604082015260600190565b60008219821115611897576118976118fe565b500190565b6000828210156118ae576118ae6118fe565b500390565b60005b838110156118ce5781810151838201526020016118b6565b838111156118dd576000848401525b50505050565b60006000198214156118f7576118f76118fe565b5060010190565b634e487b7160e01b600052601160045260246000fd5b6001600160a01b038116811461192957600080fd5b5056fea2646970667358221220814a7281c59b2ddf14c0553dff4f018c64a733418046538cabaa2ef2924c0d4464736f6c63430008040033",
  "linkReferences": {},
  "deployedLinkReferences": {}
}