{
  "_format": "hh-sol-artifact-1",
  "contractName": "RentalMarket",
  "sourceName": "contracts/RentalMarket.sol",
  "abi": [
    {
      "inputs": [],
      "stateMutability": "nonpayable",
      "type": "constructor"
    },
    {
      "anonymous": false,
      "inputs": [
        {
          "indexed": true,
          "internalType": "uint256",
          "name": "itemId",
          "type": "uint256"
        },
        {
          "indexed": false,
          "internalType": "bool",
          "name": "isActive",
          "type": "bool"
        },
        {
          "indexed": true,
          "internalType": "address",
          "name": "NFTContract",
          "type": "address"
        },
        {
          "indexed": true,
          "internalType": "uint256",
          "name": "tokenId",
          "type": "uint256"
        },
        {
          "indexed": false,
          "internalType": "address",
          "name": "seller",
          "type": "address"
        },
        {
          "indexed": false,
          "internalType": "address",
          "name": "renter",
          "type": "address"
        },
        {
          "indexed": false,
          "internalType": "uint256",
          "name": "price",
          "type": "uint256"
        },
        {
          "indexed": false,
          "internalType": "uint256",
          "name": "expiresAt",
          "type": "uint256"
        }
      ],
      "name": "MarketItemCreated",
      "type": "event"
    },
    {
      "inputs": [
        {
          "internalType": "address",
          "name": "nftContract",
          "type": "address"
        },
        {
          "internalType": "uint256",
          "name": "tokenId",
          "type": "uint256"
        },
        {
          "internalType": "uint256",
          "name": "price",
          "type": "uint256"
        },
        {
          "internalType": "uint256",
          "name": "expiresAt",
          "type": "uint256"
        }
      ],
      "name": "createMarketItem",
      "outputs": [],
      "stateMutability": "payable",
      "type": "function"
    },
    {
      "inputs": [],
      "name": "fetchItemsClaimable",
      "outputs": [
        {
          "components": [
            {
              "internalType": "uint256",
              "name": "itemId",
              "type": "uint256"
            },
            {
              "internalType": "bool",
              "name": "isActive",
              "type": "bool"
            },
            {
              "internalType": "address",
              "name": "NFTContract",
              "type": "address"
            },
            {
              "internalType": "uint256",
              "name": "tokenId",
              "type": "uint256"
            },
            {
              "internalType": "address payable",
              "name": "seller",
              "type": "address"
            },
            {
              "internalType": "address",
              "name": "renter",
              "type": "address"
            },
            {
              "internalType": "uint256",
              "name": "price",
              "type": "uint256"
            },
            {
              "internalType": "uint256",
              "name": "expiresAt",
              "type": "uint256"
            }
          ],
          "internalType": "struct RentalMarket.MarketItem[]",
          "name": "",
          "type": "tuple[]"
        }
      ],
      "stateMutability": "view",
      "type": "function"
    },
    {
      "inputs": [],
      "name": "fetchMarketItems",
      "outputs": [
        {
          "components": [
            {
              "internalType": "uint256",
              "name": "itemId",
              "type": "uint256"
            },
            {
              "internalType": "bool",
              "name": "isActive",
              "type": "bool"
            },
            {
              "internalType": "address",
              "name": "NFTContract",
              "type": "address"
            },
            {
              "internalType": "uint256",
              "name": "tokenId",
              "type": "uint256"
            },
            {
              "internalType": "address payable",
              "name": "seller",
              "type": "address"
            },
            {
              "internalType": "address",
              "name": "renter",
              "type": "address"
            },
            {
              "internalType": "uint256",
              "name": "price",
              "type": "uint256"
            },
            {
              "internalType": "uint256",
              "name": "expiresAt",
              "type": "uint256"
            }
          ],
          "internalType": "struct RentalMarket.MarketItem[]",
          "name": "",
          "type": "tuple[]"
        }
      ],
      "stateMutability": "view",
      "type": "function"
    },
    {
      "inputs": [],
      "name": "fetchMyNFTs",
      "outputs": [
        {
          "components": [
            {
              "internalType": "uint256",
              "name": "itemId",
              "type": "uint256"
            },
            {
              "internalType": "bool",
              "name": "isActive",
              "type": "bool"
            },
            {
              "internalType": "address",
              "name": "NFTContract",
              "type": "address"
            },
            {
              "internalType": "uint256",
              "name": "tokenId",
              "type": "uint256"
            },
            {
              "internalType": "address payable",
              "name": "seller",
              "type": "address"
            },
            {
              "internalType": "address",
              "name": "renter",
              "type": "address"
            },
            {
              "internalType": "uint256",
              "name": "price",
              "type": "uint256"
            },
            {
              "internalType": "uint256",
              "name": "expiresAt",
              "type": "uint256"
            }
          ],
          "internalType": "struct RentalMarket.MarketItem[]",
          "name": "",
          "type": "tuple[]"
        }
      ],
      "stateMutability": "view",
      "type": "function"
    },
    {
      "inputs": [],
      "name": "fetchRentedNFTs",
      "outputs": [
        {
          "components": [
            {
              "internalType": "uint256",
              "name": "itemId",
              "type": "uint256"
            },
            {
              "internalType": "bool",
              "name": "isActive",
              "type": "bool"
            },
            {
              "internalType": "address",
              "name": "NFTContract",
              "type": "address"
            },
            {
              "internalType": "uint256",
              "name": "tokenId",
              "type": "uint256"
            },
            {
              "internalType": "address payable",
              "name": "seller",
              "type": "address"
            },
            {
              "internalType": "address",
              "name": "renter",
              "type": "address"
            },
            {
              "internalType": "uint256",
              "name": "price",
              "type": "uint256"
            },
            {
              "internalType": "uint256",
              "name": "expiresAt",
              "type": "uint256"
            }
          ],
          "internalType": "struct RentalMarket.MarketItem[]",
          "name": "",
          "type": "tuple[]"
        }
      ],
      "stateMutability": "view",
      "type": "function"
    },
    {
      "inputs": [
        {
          "internalType": "uint256",
          "name": "itemId",
          "type": "uint256"
        }
      ],
      "name": "finishRenting",
      "outputs": [],
      "stateMutability": "nonpayable",
      "type": "function"
    },
    {
      "inputs": [],
      "name": "getListingPrice",
      "outputs": [
        {
          "internalType": "uint256",
          "name": "",
          "type": "uint256"
        }
      ],
      "stateMutability": "view",
      "type": "function"
    },
    {
      "inputs": [
        {
          "internalType": "address",
          "name": "nftContract",
          "type": "address"
        },
        {
          "internalType": "uint256",
          "name": "itemId",
          "type": "uint256"
        }
      ],
      "name": "rentMarketItem",
      "outputs": [],
      "stateMutability": "payable",
      "type": "function"
    },
    {
      "inputs": [
        {
          "internalType": "uint256",
          "name": "_listingPrice",
          "type": "uint256"
        }
      ],
      "name": "setListingPrice",
      "outputs": [],
      "stateMutability": "nonpayable",
      "type": "function"
    }
  ],
  "bytecode": "0x60806040526658d15e176280006005553480156200001c57600080fd5b506001600081905550620000597fec9236eab1873546239a2fc1e9fe6073dfa242230433fb1b1c67b9b25326359860001b6200010860201b60201c565b6200008d7f5e693dcd6e321ee84797a4a2196bda2da5fbaad33dcc35146c537eaf24d3584560001b6200010860201b60201c565b620000c17fcf71dd3bdfb0769b82c526ffb73ecd11046e53f91e94c0e67f8ff3f6a10c3d2f60001b6200010860201b60201c565b33600460006101000a81548173ffffffffffffffffffffffffffffffffffffffff021916908373ffffffffffffffffffffffffffffffffffffffff1602179055506200010b565b50565b615619806200011b6000396000f3fe6080604052600436106100865760003560e01c8063599ba23411610059578063599ba2341461013757806369bac17e146101535780637c726b691461017e5780638c52e548146101a7578063b8bb6d6e146101c357610086565b80630f08efe01461008b57806312e85585146100b6578063202e3740146100e15780634de48be81461010c575b600080fd5b34801561009757600080fd5b506100a06101ec565b6040516100ad9190614f8b565b60405180910390f35b3480156100c257600080fd5b506100cb610c4f565b6040516100d89190615189565b60405180910390f35b3480156100ed57600080fd5b506100f6610cdd565b6040516101039190614f8b565b60405180910390f35b34801561011857600080fd5b50610121611639565b60405161012e9190614f8b565b60405180910390f35b610151600480360381019061014c9190614b67565b611f95565b005b34801561015f57600080fd5b50610168612714565b6040516101759190614f8b565b60405180910390f35b34801561018a57600080fd5b506101a560048036038101906101a09190614bca565b613178565b005b6101c160048036038101906101bc9190614b2b565b61339e565b005b3480156101cf57600080fd5b506101ea60048036038101906101e59190614bca565b613d7a565b005b606061021a7f1f86aff5809f6cf945a639faf87c4b31f6067b3061ecabc035430709ddec15fb60001b6148b2565b6102467fd6e255a8c2fe807be9691c70a342c8793fa5a60ed44fef8cd2b5e1134cc6bac060001b6148b2565b6102727fd6a6620f1cce4c49653584a5e37a2c451521f97bfd7c300c30339447925120e760001b6148b2565b600061027e60016148b5565b90506102ac7fb647ee764f3fa0dc699922a80ae02f655cb6d2e2c27719d52fe60962e8c2883060001b6148b2565b6102d87f47f2c7af616817dd58a161b8aa2ac1e022fe1ef0ed5861f9ed0827509e764a1b60001b6148b2565b60006102e460026148b5565b6102ee60016148b5565b6102f89190615265565b90506103267f737f1affa63c12efbdf16d0dfb08c9d85731cf81948737088b068f22199684be60001b6148b2565b6103527fbfdb98d505476cc3eb371b2a26d345c382e4477e543253c37a964a5f657e71d660001b6148b2565b60006103807f50e021ec11cd7519dc9b834c984148d20f5a8b106db63b8d5ec9b73ab535110360001b6148b2565b6103ac7f1ca19942f366327eaf16422bf8107552d9d7b8ead5805b448b84e9f1a023b14760001b6148b2565b60008267ffffffffffffffff8111156103ee577f4e487b7100000000000000000000000000000000000000000000000000000000600052604160045260246000fd5b60405190808252806020026020018201604052801561042757816020015b610414614a3a565b81526020019060019003908161040c5790505b5090506104567fb1b01c034e32cbe9ad944b818e8e7b746f7225eadf2623d396914451df1137dc60001b6148b2565b6104827fa5e10123b4ab2ed8b80068cdf1c99b485215d0c2d669302fd1fb3f6461306ef360001b6148b2565b6104c26040518060400160405280600c81526020017f41646472657373205a65726f000000000000000000000000000000000000000081525060006148c3565b6104ee7f090fce1d705328ddc206b9ceaf51883c3b32e8f793e959e133328ced3fcb6c3060001b6148b2565b61051a7f6b9d3f403e0e8bf778d2b485afefb5c722824e605536332bd604e7d7bd9f549860001b6148b2565b60005b84811015610bec576105517fe450933cab10a95bdf40c111ca8f4fb107596e6aedfcd708a8dfa2db67bf29f760001b6148b2565b61057d7fd068bcaa3acd71145c8b9a83faa0c33493cf7c249b80a9a9a78ac677cca8039d60001b6148b2565b6105de6040518060400160405280600781526020017f4974656d20494400000000000000000000000000000000000000000000000000815250600660006001856105c7919061520f565b81526020019081526020016000206000015461495f565b61060a7f35e69cdc8a13dd81750a6ad08f841931c5b93688be2577b96341f680f76b8ec360001b6148b2565b6106367fcc54c17187fe05a99245527253ce362a971e72fbbfef242aea320eaf476e151160001b6148b2565b6106b76040518060400160405280600b81526020017f4974656d2052656e74657200000000000000000000000000000000000000000081525060066000600185610680919061520f565b815260200190815260200160002060040160009054906101000a900473ffffffffffffffffffffffffffffffffffffffff166148c3565b6106e37f28488ad9afb4c89debb322ad02a334a3aade76b3870e25c3d1e7d92d077bc04160001b6148b2565b61070f7fc5d205988a1f7067bb05934246ffa2d932d21bf590a768a029a4f395f85be6c660001b6148b2565b600060066000600184610722919061520f565b815260200190815260200160002060000154141580156107b05750600073ffffffffffffffffffffffffffffffffffffffff1660066000600184610766919061520f565b815260200190815260200160002060040160009054906101000a900473ffffffffffffffffffffffffffffffffffffffff1673ffffffffffffffffffffffffffffffffffffffff16145b15610bac576107e17fb6a53bddc208c2aab1fa9ad512365384ae6fb9e425e7b04fa952198e8db7315060001b6148b2565b61080d7f8798da0886c65c257030aca20c6bd3c3df76d80b714c7825603e70aec3e2172d60001b6148b2565b6108397f8fadb5e5c747b302ca1222d639faa7df93fcffd42cfd340b84c5c7cabb3e0e8f60001b6148b2565b6000600182610848919061520f565b90506108767f64a13a479246642b2a89b2463f32e4bd566b652c25c028d6f3ba83855949020960001b6148b2565b6108a27fd35ffc576a74823e62d042ab4159059837ee09d6b314bf6060379f979d6f6cbf60001b6148b2565b6108e16040518060400160405280600e81526020017f4974656d204f6e204d61726b65740000000000000000000000000000000000008152508361495f565b61090d7f4e6878504656dab40e6cdaa33f4b7c383f3c3606b26cf0890daa4722800bf85660001b6148b2565b6109397f6951ff2a78044e2d17d3ea12d3492ac28f8cac32a618db8a77a069a2c536401f60001b6148b2565b600060066000838152602001908152602001600020905061097c7f7575686b470dc432814994d283b920d421d38554ea3c9911856ff1f0452c572560001b6148b2565b6109a87fe2eeef733f0719e1d5cc3be805c8b361803a5985d9ffe76230036102ee0b47d860001b6148b2565b8060405180610100016040529081600082015481526020016001820160009054906101000a900460ff161515151581526020016001820160019054906101000a900473ffffffffffffffffffffffffffffffffffffffff1673ffffffffffffffffffffffffffffffffffffffff1673ffffffffffffffffffffffffffffffffffffffff168152602001600282015481526020016003820160009054906101000a900473ffffffffffffffffffffffffffffffffffffffff1673ffffffffffffffffffffffffffffffffffffffff1673ffffffffffffffffffffffffffffffffffffffff1681526020016004820160009054906101000a900473ffffffffffffffffffffffffffffffffffffffff1673ffffffffffffffffffffffffffffffffffffffff1673ffffffffffffffffffffffffffffffffffffffff16815260200160058201548152602001600682015481525050848681518110610b33577f4e487b7100000000000000000000000000000000000000000000000000000000600052603260045260246000fd5b6020026020010181905250610b6a7f5733a643fe86cc8c9fefda6c77e7d110ae57e4251479dc68251377430465e84760001b6148b2565b610b967f8c33a280d9d07a107217e5fbaa6607c7638f07a03e23ce086800b2801332a32a60001b6148b2565b600185610ba3919061520f565b94505050610bd9565b610bd87f83c852622eaa351247042edf6b0b8f8e44ea70165c15a148d9c60fdfef22a32b60001b6148b2565b5b8080610be490615326565b91505061051d565b50610c197f85c43b958fa4e9c8efc339f2e78ac010186daa132182fc4e4b07018f6cc52d7b60001b6148b2565b610c457fff1fe394bbcc769879f5ddbe52936ae27ae3142f450efbbe305755d48340254660001b6148b2565b8094505050505090565b6000610c7d7f27b576f25b2aadf7efcaa314beea89f8d91ef9584a3a785f6cc6acf959c7f40060001b6148b2565b610ca97fda42eeaa144db5f7208df84acc777de86a0ffdac3b37a04a5659bce42ba0c1d960001b6148b2565b610cd57ff93122d9831f8edae01b725d45fe0345fb8081cc1bb53a3fe78c6d77ab7e9fe860001b6148b2565b600554905090565b6060610d0b7f6d0c5bf7eb2a3189b9ab831a43f5ad2bbbb87c4c476e786c919d894cd3f03b2060001b6148b2565b610d377feacac2914d557631ba11e01de309a7d348ccd986d24b4526c8e66b7c063f487760001b6148b2565b610d637fc8ab2d4e7cc59efb61f76a08d8d60187fe459f68c990269dc95004a5b9ff084b60001b6148b2565b6000610d6f60016148b5565b9050610d9d7fb8329a7b094445d8997c4bddda407557af256aa4eb3c69a7a01617f648a7fa6960001b6148b2565b610dc97f64a26c32adeed1384e342ff7355c4c2d01c4aa2b0cd90bd90143c371f27abd9b60001b6148b2565b6000610df77f2c1ebeeab5f58c742539b2cc5f638d8fd95157c818a5816ae75955bd5423a80a60001b6148b2565b610e237fb441d50aeebc8a93c2043f395435bb8cecd2f358b33033383a4dfbb4478b165460001b6148b2565b6000610e517fa924db0286023b6e99b12d276894ab60592a9a507cd5e179fab1543d13107e0860001b6148b2565b610e7d7f01853d2bbe9a7085e23720df70936fe4af334b221a93056350ce09061f0f558860001b6148b2565b60005b8381101561102e57610eb47f201e2aa06cd2be1d8440d36c217fcc6efe9aa7d257ff58fcb38fb59c5c56fc1e60001b6148b2565b610ee07fb6b2e2a4c51c3458146c28c0b505c7bd8b40698420772c7cb3f6a25198bd621d60001b6148b2565b3373ffffffffffffffffffffffffffffffffffffffff1660066000600184610f08919061520f565b815260200190815260200160002060030160009054906101000a900473ffffffffffffffffffffffffffffffffffffffff1673ffffffffffffffffffffffffffffffffffffffff161415610fee57610f827f6cd3a95266a157ebb0dae31513f4f06f3679da04d87052418ceab3e02e40f06060001b6148b2565b610fae7fd2be7223e2953ff684f59efb7e2669f5d1289477018d9d96162c0f96c5176b1560001b6148b2565b610fda7f6783671fb68e3eb67775d80a19e42690d784a37888f07ccdbd57d25baf18bd1460001b6148b2565b600183610fe7919061520f565b925061101b565b61101a7f4e225b21b376f62265fc36c3ddd19d62b0f75d1b6ed01cd3536f7e6aeaf3116660001b6148b2565b5b808061102690615326565b915050610e80565b5061105b7fa084ee834d66d112a337d01235d3570231af39b54936ffce2845d7ed3fcfe9bc60001b6148b2565b6110877f2e45fdf6b70f5f06b33a88e07fc9c705851216e539de71a3c8774bc8db5c9f3760001b6148b2565b60008267ffffffffffffffff8111156110c9577f4e487b7100000000000000000000000000000000000000000000000000000000600052604160045260246000fd5b60405190808252806020026020018201604052801561110257816020015b6110ef614a3a565b8152602001906001900390816110e75790505b5090506111317f8a70891f77307021942185e1ba009154ca9f12222fb7be53467d0067a7cfa3c760001b6148b2565b61115d7f9ae8ae9191049d930c5a3db4295b0d3e8bba8c3fae7494ef81e4e9afa17bd1ec60001b6148b2565b60005b848110156115d6576111947f93b587547f31e16efa4be7b2d7629fb7ac0add9fbb5a040f2ad385d40fb0e25760001b6148b2565b6111c07f7e1132cfa747faa437df77da2b7844683696192266e659fd484631cdc0510f7b60001b6148b2565b3373ffffffffffffffffffffffffffffffffffffffff16600660006001846111e8919061520f565b815260200190815260200160002060030160009054906101000a900473ffffffffffffffffffffffffffffffffffffffff1673ffffffffffffffffffffffffffffffffffffffff161415611596576112627f940e8a95013232325755f15c9507472c0207616ae9c2b63a1bfc64775fc4c5d260001b6148b2565b61128e7f124c538154ffbfb30ca4d7b782e46e2e0f677ee1448d8a0efed6f59e7b0f9c7160001b6148b2565b6112ba7f6a57e0edbb488708fd0bab914f37727c7896bd6a907630dbc4d5f99fb6fc11a360001b6148b2565b60006001826112c9919061520f565b90506112f77ff76ffd3b4dbf61ae048280ae27c8cfe8d65011c1f9ef178611752606687454f860001b6148b2565b6113237fcc88a7714ed69988153a8d0e17063f0164e239b22fdd31590a7df3a919a33e6f60001b6148b2565b60006006600083815260200190815260200160002090506113667f4ae17de8f49ccb799a25b103d2001fadafd2f94a4520fe678d372ac36cf7c6e260001b6148b2565b6113927f9ebe2170732b9397f6874433c80940896394915212886a27bec873f045a4c7d060001b6148b2565b8060405180610100016040529081600082015481526020016001820160009054906101000a900460ff161515151581526020016001820160019054906101000a900473ffffffffffffffffffffffffffffffffffffffff1673ffffffffffffffffffffffffffffffffffffffff1673ffffffffffffffffffffffffffffffffffffffff168152602001600282015481526020016003820160009054906101000a900473ffffffffffffffffffffffffffffffffffffffff1673ffffffffffffffffffffffffffffffffffffffff1673ffffffffffffffffffffffffffffffffffffffff1681526020016004820160009054906101000a900473ffffffffffffffffffffffffffffffffffffffff1673ffffffffffffffffffffffffffffffffffffffff1673ffffffffffffffffffffffffffffffffffffffff1681526020016005820154815260200160068201548152505084868151811061151d577f4e487b7100000000000000000000000000000000000000000000000000000000600052603260045260246000fd5b60200260200101819052506115547fba5ef2b4886487d3e32359c0d992eb453356c6541cffe23c39a7d0d4c3fc9f9d60001b6148b2565b6115807fcb9a9b4284d5c9c59593ec63e73a57e4f4e86db4f83a4ded2b8bc1c67ff237bb60001b6148b2565b60018561158d919061520f565b945050506115c3565b6115c27f313bbac9ae58e46397cfe98db5bb745b0b212e2d7c522d556a055a125da4097a60001b6148b2565b5b80806115ce90615326565b915050611160565b506116037fb17902993a7289566809046a3a722baf9bb2fee65d420adafc82898b570c38a060001b6148b2565b61162f7f73f978101f15e3d46e28892a73d81ec9967e5b0f2d4d63e1451e2a45a490536460001b6148b2565b8094505050505090565b60606116677fb28c12040e9f4f04daea2c12603bbb7f1f99abc7aa8834894f582f30ad5190a360001b6148b2565b6116937fe5ba04413d85f458c556dd0b2b1a18ff4a0e2c33fec4f8943fff2fea1ba0fc9360001b6148b2565b6116bf7f385e2e6b2880620fd8bf1b3a850ecdf14d24101c461ce1544ec8dcdd628fda9d60001b6148b2565b60006116cb60016148b5565b90506116f97f2495d3d2f501361d868d58ed052d7d6f68ec3154b85ccc988acb18f46263056560001b6148b2565b6117257fadf85afb40d8a64ac16c2358c61b1f8754a18555a0593577a7ccc9bc53a079b660001b6148b2565b60006117537f8b01d1ad112ccb97536f47d9e954a4cbcc7a9007a84355b9d15eac2f2deb2c9160001b6148b2565b61177f7fd6e77d101f10bd9a9f2a37629179f13e1e01761a041f8569c3c1dc2b239a28dc60001b6148b2565b60006117ad7f5888cfcc17f1ba1b36672ca184f0dfbcdc3ab6f163e7e76784c0ff47bd2636a260001b6148b2565b6117d97ff08b21b82df64346a14c9b4b3827d43870eee0a6a101ae615788d40be87966b960001b6148b2565b60005b8381101561198a576118107f158824308c04738cc447b3aa0f8adaeb00aaf280f83443172c22a2ae101587ee60001b6148b2565b61183c7ff02cfbb2e293f4bf6e5ca5ded5bc2c90c9d1d8721e57f31211a660af53d233d560001b6148b2565b3373ffffffffffffffffffffffffffffffffffffffff1660066000600184611864919061520f565b815260200190815260200160002060040160009054906101000a900473ffffffffffffffffffffffffffffffffffffffff1673ffffffffffffffffffffffffffffffffffffffff16141561194a576118de7f72a6649276bc3e21177995076fe8d039d40bc8544e1d224087ed42ec583d4d4360001b6148b2565b61190a7f90f4447cffed84b3bf124e3d3fa9691652f1ca390c9d13e2b54d2b95368eccd460001b6148b2565b6119367fe3b5b85220b783bc2fa9c5e9e9081814c283ea4fe49ea3438c9e8eb46ed716da60001b6148b2565b600183611943919061520f565b9250611977565b6119767f4e514b9326512dede601f1c73c3bf90e842ed0b401b5879d6c9345aa4144600860001b6148b2565b5b808061198290615326565b9150506117dc565b506119b77fccbc12593919154970cbb46fe4dadaab0157d6cee7735b4b09e4fccd0dbe6b6d60001b6148b2565b6119e37fb8f20b75fcef434a4550d2fa2413e31fd6e21feeb55d753a743ef8180291a7be60001b6148b2565b60008267ffffffffffffffff811115611a25577f4e487b7100000000000000000000000000000000000000000000000000000000600052604160045260246000fd5b604051908082528060200260200182016040528015611a5e57816020015b611a4b614a3a565b815260200190600190039081611a435790505b509050611a8d7fba8762180fb200dcf2a7e6d1278dcb6cfb37bd6c5f94c8bd3edca66654e398f160001b6148b2565b611ab97ff20744e4aed7ba7df664ba5068602ceb8d2d4fbad045a50d54ff3210a1ca067960001b6148b2565b60005b84811015611f3257611af07f3dc394f1b544eb9362f93241e341e8576b4867e7401334b8532e68500c788e1f60001b6148b2565b611b1c7f7d58c77ffe2bc4322d83d6dec29afd9e1cacd18482e521d74ee2f268952be04560001b6148b2565b3373ffffffffffffffffffffffffffffffffffffffff1660066000600184611b44919061520f565b815260200190815260200160002060040160009054906101000a900473ffffffffffffffffffffffffffffffffffffffff1673ffffffffffffffffffffffffffffffffffffffff161415611ef257611bbe7fd3685b55977996690fb1362ea14a4a655b853f5329336fd9e9369386d54d49ee60001b6148b2565b611bea7f2e0303691b265452ff0d6bf741f25aee38751e9c0d33f93a0ac31c766b26b29960001b6148b2565b611c167f09cc6350121857889d477070fb083356638a66dae74c61a8d093bb2957c974c860001b6148b2565b6000600182611c25919061520f565b9050611c537fdea33c531e3cb60f5e4d57f19ebd4d155ec79c7070fe35415f58fb1d96ddb8d060001b6148b2565b611c7f7fdf9da882429740d0c0d5a20db97f8ec8caa1bc7a8d673567b99916fcbb5c1b1660001b6148b2565b6000600660008381526020019081526020016000209050611cc27fadcd52cfd91af916f09f9524fac34558e9ec4a401df9f3f932fdb3f4af257b9060001b6148b2565b611cee7fb639968cdea4334bfc0137aa24c15e8a9b05d8cc0dfa14b35764ef1cae15dac760001b6148b2565b8060405180610100016040529081600082015481526020016001820160009054906101000a900460ff161515151581526020016001820160019054906101000a900473ffffffffffffffffffffffffffffffffffffffff1673ffffffffffffffffffffffffffffffffffffffff1673ffffffffffffffffffffffffffffffffffffffff168152602001600282015481526020016003820160009054906101000a900473ffffffffffffffffffffffffffffffffffffffff1673ffffffffffffffffffffffffffffffffffffffff1673ffffffffffffffffffffffffffffffffffffffff1681526020016004820160009054906101000a900473ffffffffffffffffffffffffffffffffffffffff1673ffffffffffffffffffffffffffffffffffffffff1673ffffffffffffffffffffffffffffffffffffffff16815260200160058201548152602001600682015481525050848681518110611e79577f4e487b7100000000000000000000000000000000000000000000000000000000600052603260045260246000fd5b6020026020010181905250611eb07f18a94a04a7e5e52d71335cf7013c367461e05fc6310bb5a9cd802c7de22ec24a60001b6148b2565b611edc7fb40f189a45a545061bdba5da519dea68619a9a16b1daffcc09d0937bd79188d160001b6148b2565b600185611ee9919061520f565b94505050611f1f565b611f1e7f89bd833d0ae516cf9ce5059d989e3a93d3579075f4f383bd40dd81bc6742571360001b6148b2565b5b8080611f2a90615326565b915050611abc565b50611f5f7f2ec45ea2b327c6dc053a87ca2ee59db490acdc88007425432d7db9130a1683bb60001b6148b2565b611f8b7fd71d9c0e3acd7baf628d55819a96ddef4a86d6f34d084c30f6595c07640e8baf60001b6148b2565b8094505050505090565b60026000541415611fdb576040517f08c379a0000000000000000000000000000000000000000000000000000000008152600401611fd290615109565b60405180910390fd5b600260008190555061200f7f892d544e3d75c34c82066ce4aeff7beee8869b88e2a1e052707a4910e954eff260001b6148b2565b61203b7f7e386d9dff4dda3e3b095d6e3bfb231fb9b516994a64a17d860a131b7abb621360001b6148b2565b6120677f92d625256a323e9415a499e99665070f65ff737f38f04293e1817076745cc1cc60001b6148b2565b6120937faba145f7f2a8bc25253d8508f24705cddfe1612bb75ca02570f97e27a4c5b68a60001b6148b2565b600082116120d6576040517f08c379a00000000000000000000000000000000000000000000000000000000081526004016120cd90615129565b60405180910390fd5b6121027f08de8c192f48112223fc976534dfc1940ebd10b5ec0eb9bec2bffc42fae3e84560001b6148b2565b61212e7f0acf26299faa8d061e5d92bbaf81def2d951229d023ea38322f56f440ff1c7c260001b6148b2565b61215a7f860012f0a801a0a4966c7dc8562777c3dfeec38db3f32104a5e85d20cce5149060001b6148b2565b6121867f236e543f2065e8700393473e2c4d5a1cfea77857b6211e94295139ddb349001560001b6148b2565b60055434146121ca576040517f08c379a00000000000000000000000000000000000000000000000000000000081526004016121c1906150c9565b60405180910390fd5b6121f67f5643165521196da9537128f4bd72a1377f2d2ed0f59d31fb6d991edf3d4dbbec60001b6148b2565b6122227ffc4aa20388d27b6789d44082e63ab01971a234979b58c70d1c62003c9a2436ed60001b6148b2565b61224e7f3e3ac34e3b4279e8e352c646f5125fae8acf679413a855458c8bee02cf147c1960001b6148b2565b61225860016149fb565b6122847f9ffd00bebf67aa6b693aad698193e24561cf7461d687379e4638f4269c56057d60001b6148b2565b6122b07fb1ee10e902274ed01cb70e6d98ad5cb83cc554478c1312963c1087ec1c6edf7460001b6148b2565b60006122bc60016148b5565b90506122ea7f4d76c921f7130518755da89e07312ed78a04458cfb079a5307d13a8bfebb812960001b6148b2565b6123167f4526bc26f7f5a8ceca66619e3214e30cc6281bc074b43711ecab987986d3bfc360001b6148b2565b6040518061010001604052808281526020016000151581526020018673ffffffffffffffffffffffffffffffffffffffff1681526020018581526020013373ffffffffffffffffffffffffffffffffffffffff168152602001600073ffffffffffffffffffffffffffffffffffffffff16815260200184815260200183815250600660008381526020019081526020016000206000820151816000015560208201518160010160006101000a81548160ff02191690831515021790555060408201518160010160016101000a81548173ffffffffffffffffffffffffffffffffffffffff021916908373ffffffffffffffffffffffffffffffffffffffff1602179055506060820151816002015560808201518160030160006101000a81548173ffffffffffffffffffffffffffffffffffffffff021916908373ffffffffffffffffffffffffffffffffffffffff16021790555060a08201518160040160006101000a81548173ffffffffffffffffffffffffffffffffffffffff021916908373ffffffffffffffffffffffffffffffffffffffff16021790555060c0820151816005015560e082015181600601559050506124f57fa5847f84c9d032b52c9ac918cf793c96af35fb023e5011466ae97933bad0e00860001b6148b2565b6125217fc06d185ba71f2864982aa5145ebf86050a1b5476b153664303baef01e66449bf60001b6148b2565b8473ffffffffffffffffffffffffffffffffffffffff166323b872dd3330876040518463ffffffff1660e01b815260040161255e93929190614f54565b600060405180830381600087803b15801561257857600080fd5b505af115801561258c573d6000803e3d6000fd5b505050506125bc7f9e52c25cf0e647489f3b729a5a1169abb6ea3ab465c4408b6e9b0be475152e3c60001b6148b2565b6125e87f4f4adb196c95974ed7c82f1f363e7c9a0053e92f63389a1b67c367ad38aeb84460001b6148b2565b600460009054906101000a900473ffffffffffffffffffffffffffffffffffffffff1673ffffffffffffffffffffffffffffffffffffffff166108fc6005549081150290604051600060405180830381858888f19350505050158015612652573d6000803e3d6000fd5b5061267f7f62b519d9bd3e782d490e92f31c6d956503fc270fef3a39344a2373a4fb34ceba60001b6148b2565b6126ab7f6b8a3c303f2e0f333bd4bfa136a322642f3d3c4ec981fc1d5e1416fe6a1eefd360001b6148b2565b838573ffffffffffffffffffffffffffffffffffffffff16827f90ff26942c17b6c2414e13d762404fd07deca541df68195b50d38a51bfa993b5600033600089896040516126fd959493929190614fad565b60405180910390a450600160008190555050505050565b60606127427fabfa770a4b0dcad1e4fe42a1be2434ae04cda6aab6c3448d77b56e3a0dc56a6160001b6148b2565b61276e7f929bbb614076f34f340eb4d3f88a3b968ecbcf9323a1b602de5facd6558af6f160001b6148b2565b61279a7f1b2a0c5119e2c2eb6d1dc619d0decb2ff8c586f25e4fc5edd3a9da11fbd67cf760001b6148b2565b60006127a660016148b5565b90506127d47fe41b788318c82334dcb0d10b643dd579f57c573b21447997fa5a67056e1ffacc60001b6148b2565b6128007f0c4cf469eccd4630e4e9b68f0aedd2997273d192b67904e5a2eafea882f2bb5860001b6148b2565b600061282e7f34a3f843a26cb59d330c6d13d58f7486da80b7c20391aa3ff438207cb59f3a6060001b6148b2565b61285a7f9592d98af273c59d38afb3a0ab76c7f1dd33c97c098c1a330bc69d1e1fbd034160001b6148b2565b60006128887fc2515f83205a25ee21e5ee449870e29a0c0691762ad71abc50b41c5e9edddb6660001b6148b2565b6128b47f19f48b37e09b3da54feb7ba2f7738315bf60c3ed8343e7ff8aa85710dc8784b660001b6148b2565b6128f36040518060400160405280600881526020017f54696d65204e6f770000000000000000000000000000000000000000000000008152504261495f565b61291f7fa761f57ed8ad7ccc18b02d22c3c2193861842354b714af6f6987249eb2c1bd7760001b6148b2565b61294b7f9acd9e53ed29e1af2bca0d5e9ed1ad10f864cbc9994d876dba673daa3e40e6b660001b6148b2565b60005b83811015612ae9576129827f2c22f85734d367d790735cd0199221197cc5cd401e43de7a6ce3031cb354141560001b6148b2565b6129ae7f4148a7d15e964a36d6b83079b64c2765beac16b04f1139c894520dbb707ac2df60001b6148b2565b600660006001836129bf919061520f565b815260200190815260200160002060010160009054906101000a900460ff168015612a0c575042600660006001846129f7919061520f565b81526020019081526020016000206006015411155b15612aa957612a3d7f6b5d2397a32fb1f35fafb9f7ceab6101cbc8bb382b4db325918baee22dcced8260001b6148b2565b612a697f876f2a63ea6822cc3214ea8f7f028ac5a39e4a05b81895bb7d32c01a9441bb2060001b6148b2565b612a957f39ae3c322252a8d41b0681e2e55971f180fff83ad5de0946e1c7f1812378493260001b6148b2565b600183612aa2919061520f565b9250612ad6565b612ad57fb79b1f066ac3d6b89879a69615e6fb6085d3cd08e5cf5bb7499fbb0870617eab60001b6148b2565b5b8080612ae190615326565b91505061294e565b50612b167f5c91d05786bed5960c4f8693bc679aec3cdecd5ae5773fc7df6e30e819c7219660001b6148b2565b612b427f0e63792879b2679a9eccc8901794ee1925f73dfd2970597544976eb5bf7095c560001b6148b2565b612b816040518060400160405280601581526020017f746f74616c20636c61696d61626c65206974656d7300000000000000000000008152508361495f565b612bad7fd341c6ffb11b9a34ccaae0a49c416315ada5b6282544bce03f6ab306b39bdd6260001b6148b2565b612bd97f0c6b571995a184045d5c40396b561927ddbae9fe7d92066487f7ede14740522760001b6148b2565b60008267ffffffffffffffff811115612c1b577f4e487b7100000000000000000000000000000000000000000000000000000000600052604160045260246000fd5b604051908082528060200260200182016040528015612c5457816020015b612c41614a3a565b815260200190600190039081612c395790505b509050612c837fb90fb29b81483fbaac91540335c8a45e4bff3f92579a5fea4ade9335451f699860001b6148b2565b612caf7f1b926345d83b198deee108467aa7aaa63b1c6b0ec1c88a2364a36f3d2a96a8dd60001b6148b2565b60005b8481101561311557612ce67f0b245331af61e8b537400eac967c614ab6f37e8ca8bb6e92d5ec7c49e7e349b960001b6148b2565b612d127ff710b56b65db7b281eb3bcf4c9fd1c79879884aeadb228a457164899b1463d3960001b6148b2565b60066000600183612d23919061520f565b815260200190815260200160002060010160009054906101000a900460ff168015612d7057504260066000600184612d5b919061520f565b81526020019081526020016000206006015411155b156130d557612da17f3018fe7c00350fbeab13ecad24bb06ad107842e5c37fe32a573b450b317d0cae60001b6148b2565b612dcd7fb1e34d315569c5dc69f00fe73a14f8e66189a5f6041a3beeca294c1c5756aae060001b6148b2565b612df97f8b0f307c6ae9abef3585e4cf558e29df0bd8c40ab70613e866dce0b0893de96960001b6148b2565b6000600182612e08919061520f565b9050612e367fab9a88665a68afe75296aaa796ad584ac23abdf8735c9ab2095f25f209db234f60001b6148b2565b612e627f38fc8027524c6fbc0e5010dc4a5fd8b16c51037055740df01a11956dd892b2cf60001b6148b2565b6000600660008381526020019081526020016000209050612ea57febbc029c3d9ad0dbfb00eebc37725c7256fbe18695407ce6b5c5ef4e51d2694560001b6148b2565b612ed17f86711d5e12837fa8bfb7dc478503ada6f6066879b19b993649b9d91b80ac980f60001b6148b2565b8060405180610100016040529081600082015481526020016001820160009054906101000a900460ff161515151581526020016001820160019054906101000a900473ffffffffffffffffffffffffffffffffffffffff1673ffffffffffffffffffffffffffffffffffffffff1673ffffffffffffffffffffffffffffffffffffffff168152602001600282015481526020016003820160009054906101000a900473ffffffffffffffffffffffffffffffffffffffff1673ffffffffffffffffffffffffffffffffffffffff1673ffffffffffffffffffffffffffffffffffffffff1681526020016004820160009054906101000a900473ffffffffffffffffffffffffffffffffffffffff1673ffffffffffffffffffffffffffffffffffffffff1673ffffffffffffffffffffffffffffffffffffffff1681526020016005820154815260200160068201548152505084868151811061305c577f4e487b7100000000000000000000000000000000000000000000000000000000600052603260045260246000fd5b60200260200101819052506130937fad6d8e7ce20041c21d29ff6896cecd6781de2eae69af278b206aba99e494e13060001b6148b2565b6130bf7f0ae6a0d0dec07bb71aab9f07fc81f160548f08046b3121accf3075d7e328feb260001b6148b2565b6001856130cc919061520f565b94505050613102565b6131017f30f1898d16a3f9c1e6269e69fdee1442ba687a277d869231ab48c6365358513360001b6148b2565b5b808061310d90615326565b915050612cb2565b506131427f8e4f41e1dc3a34b3e00a859b61df238bada2c7c1ce0eaa98f11b2f19fb24ce4b60001b6148b2565b61316e7f3687d38740b7b7942c047a5b64ea551ff1c0a2fc5402888406272c280708649360001b6148b2565b8094505050505090565b6131a47f1afbf758f8d4f16989d6efeed995911f3255f3c3f05b00316b756c4f0f85b6bb60001b6148b2565b6131d07f937c4133ca9153111d7e298fa9cff66eadf4edeae6eba28bec342e84aabc1fb060001b6148b2565b6131fc7f13c0eab238cbb6e8dd64f291095cf31eab638e25bc8971bbd1cbdeebb843a2f160001b6148b2565b6132287fca3461c51a6bb23e6a5cce2c5c8818a5016f71f3dd316c7fa4883d70582088fc60001b6148b2565b600460009054906101000a900473ffffffffffffffffffffffffffffffffffffffff1673ffffffffffffffffffffffffffffffffffffffff163373ffffffffffffffffffffffffffffffffffffffff16146132b8576040517f08c379a00000000000000000000000000000000000000000000000000000000081526004016132af90615149565b60405180910390fd5b6132e47f763380a7a32cd7a3b0e0c04f0513c32776eb142922e580d5f5ac8c8c14699c4260001b6148b2565b6133107f0eb5f9fc6b3ada23f245dc09a29b2ea72672cc174a7b4502eb9bd94693a7994560001b6148b2565b61333c7f20cad5c73a0f631149236f5985f2fac80bf4a010cc383c5d0b07c5f74260bab160001b6148b2565b6133687fe2f1704ae2d4e1d773fef57b5de7c449dee043d9cda1f0c6488b582bf678ff8060001b6148b2565b6133947f9f985032fbc7db5cd8640401d7f85aecc9af1a3e3ce676b8df61c4a8e025b22e60001b6148b2565b8060058190555050565b600260005414156133e4576040517f08c379a00000000000000000000000000000000000000000000000000000000081526004016133db90615109565b60405180910390fd5b60026000819055506134187fa82fc3f477df2d8ca677dc625d36fcbf673d0324e5fcd8646c398965d85d26c660001b6148b2565b6134447f2dd24684af433ec965a0a603addeccf863f48679fd5690206e8f734eaf2cbf6f60001b6148b2565b6134707f95564aecd4baeaa8ce92d262b612c74d416ac4417ef1869076da28f666de733860001b6148b2565b6000600660008381526020019081526020016000206005015490506134b77f404a08dec73e7e4a5464e10f02afb3270e2000ec805666077ff003e99d54c74e60001b6148b2565b6134e37f56a47df6307126c438d004414e316420c4488d250db905e173da16afa135883060001b6148b2565b60006006600084815260200190815260200160002060020154905061352a7fa6d09d632f02a8e7b9b18bea34f1809fff8b2e8f9c3efff0fc0e39c072ec626160001b6148b2565b6135567fce395284cd11f1a1649db232b54140cef735ea4ba1d900698d8376c0ddd00d5960001b6148b2565b6135827f9a44c567f646815ef9119aaab492878b7fba3eaea29c4443feeb95cdceadbaae60001b6148b2565b8134146135c4576040517f08c379a00000000000000000000000000000000000000000000000000000000081526004016135bb906150a9565b60405180910390fd5b6135f07fb3dbe49bc6f1fe4946f91d0b9fde0cc187150b77892acb93f07deff289b99c1360001b6148b2565b61361c7ff97add6e972da557783463be11e35df6abc61099feaae43ca736b57afe1a78ad60001b6148b2565b6136487f7f54ea0265e79a50aa1a5da33e427abeaba2f8aa0465b3522ab9060a1da20dd860001b6148b2565b6136747ff09ec5c8f6b402c521a15b7c094e4b26bc546167bd32a4d288be10b33d4dd9da60001b6148b2565b3073ffffffffffffffffffffffffffffffffffffffff168473ffffffffffffffffffffffffffffffffffffffff16636352211e836040518263ffffffff1660e01b81526004016136c49190615189565b60206040518083038186803b1580156136dc57600080fd5b505afa1580156136f0573d6000803e3d6000fd5b505050506040513d601f19601f820116820180604052508101906137149190614b02565b73ffffffffffffffffffffffffffffffffffffffff161461376a576040517f08c379a0000000000000000000000000000000000000000000000000000000008152600401613761906150e9565b60405180910390fd5b6137967f36b1cad18487fff68960ccdaa7493cb263649864878f746ea7470ffc2953e37860001b6148b2565b6137c27f4a2a001a0e92720851a15b478636454c09f0b2e4ab1ca7dc9a89cdae840bf6c160001b6148b2565b6137ee7f582ffceec6aeb89de0fcfd3ec65abab1aacdd8c499478a55e9c6c7b45ef50e8a60001b6148b2565b6006600084815260200190815260200160002060030160009054906101000a900473ffffffffffffffffffffffffffffffffffffffff1673ffffffffffffffffffffffffffffffffffffffff166108fc349081150290604051600060405180830381858888f1935050505015801561386a573d6000803e3d6000fd5b506138977f3735aeb994f835f40f07a067be056dd070d34c1619f4c02a0852c818b8dc132960001b6148b2565b6138c37f9c3bbb6c45aedc057c09dc1d653bc8db4dc3fdff02293bc53c30d5cccb1210b260001b6148b2565b8373ffffffffffffffffffffffffffffffffffffffff166323b872dd3033846040518463ffffffff1660e01b815260040161390093929190614f54565b600060405180830381600087803b15801561391a57600080fd5b505af115801561392e573d6000803e3d6000fd5b5050505061395e7f4957b19069630581572a3aecf7e39e2ac35aadae4eb6bce0de23911ce1ff776260001b6148b2565b61398a7f56135a0af5a967b567a6a3ed54e091759e3ca718333ff16faba907b17cd0e84c60001b6148b2565b60008473ffffffffffffffffffffffffffffffffffffffff166001836040516024016139b7929190615000565b6040516020818303038152906040527f32b95aa9000000000000000000000000000000000000000000000000000000007bffffffffffffffffffffffffffffffffffffffffffffffffffffffff19166020820180517bffffffffffffffffffffffffffffffffffffffffffffffffffffffff8381831617835250505050604051613a419190614f06565b6000604051808303816000865af19150503d8060008114613a7e576040519150601f19603f3d011682016040523d82523d6000602084013e613a83565b606091505b50509050613ab37fe8a6fffaa1cd0e9b447d282695910c460cef7482b6e935cd56bd9315284d393a60001b6148b2565b613adf7fb658c4b1173c28b3f8e1c1b6a88df6c31b67f70fd6e06cbdf5c6330c846ae24760001b6148b2565b613b0b7fb2e2293bc0854d2d99185013db404eaa5ae474252c011c4eea9744e4d7759a3e60001b6148b2565b80613b1557600080fd5b613b417fe71ba5d11e9ef59fe5290c031b21e710d0477aad0910592200798712e4f7c74560001b6148b2565b613b6d7fba0e9f6cd46b0eaafffcf1929255dd1a803025820aba7d2a792cb58f5ad73f2d60001b6148b2565b613b997f13c4945ffdd95101811fabecc4c3ff54745b2717b6c3352e96c46a1b57d08dd360001b6148b2565b426006600086815260200190815260200160002060060154613bbb919061520f565b6006600086815260200190815260200160002060060181905550613c017f80a129233e2eaed55455237edd8cec4abba385a576516c1b12daa9684bc2f0ed60001b6148b2565b613c2d7f74c18499f96ea9b37ff4e122b5178f99eb084b9e0b28c2f09e422788038a230960001b6148b2565b336006600086815260200190815260200160002060040160006101000a81548173ffffffffffffffffffffffffffffffffffffffff021916908373ffffffffffffffffffffffffffffffffffffffff160217905550613cae7f65ffdd40e91a919a357fff2aaac051ed491b1c4e934cec04514456396e88da4860001b6148b2565b613cda7f88a9e48420feacb8e7b94144a31b975331b89da465bcf611bb94a36dbf8bc17d60001b6148b2565b60016006600086815260200190815260200160002060010160006101000a81548160ff021916908315150217905550613d357f3c078e5f8aef78ed4eb9e5c0344533ef476cf80e446e306520f32216cf060d0d60001b6148b2565b613d617f6e632fd70dd7bfbde9eb0bb7d11ad74777ab49363e4d7ae2335587f08bdc510a60001b6148b2565b613d6b60026149fb565b50505060016000819055505050565b60026000541415613dc0576040517f08c379a0000000000000000000000000000000000000000000000000000000008152600401613db790615109565b60405180910390fd5b6002600081905550613df47fd32e57e79e21ac85291badc9df6f3cd52f7e429d2854697b51ab1c10175411c260001b6148b2565b613e207fa8bc792a1aa5fd6946975ea10b9e1a203f69bfd5e80e9c7068781569c589fbaa60001b6148b2565b613e4c7fe80fc0856975867522b6843cabaa95be1b268e10e4b6ea4ba2f65c5fad1282a560001b6148b2565b6000600660008381526020019081526020016000209050613e8f7f5b916616a8bb097cc711a3225ba48765e7577b304e0a413752ad57034f69db6860001b6148b2565b613ebb7fdd9f80e0b57929d0b4a11050bba6e1da7a69115e80d3bd631477afd99b1cc7b760001b6148b2565b613ee77f4bc5aa28bb141bbe0957a4502adcc6e9149665278b25a5c5661dc0cdb249036f60001b6148b2565b8060040160009054906101000a900473ffffffffffffffffffffffffffffffffffffffff1673ffffffffffffffffffffffffffffffffffffffff163373ffffffffffffffffffffffffffffffffffffffff161480613f49575080600601544210155b613f88576040517f08c379a0000000000000000000000000000000000000000000000000000000008152600401613f7f90615169565b60405180910390fd5b613fb47f0b41191e498a45a49530442f2dd8db57af56e0163e51729ae1543d5f388d977d60001b6148b2565b613fe07f095d2b95e42a184991300f605e409f87579448ad456b05161d04899773ca9e3a60001b6148b2565b61400c7f90d8fdc6c046d94d6754940c7d8bdf159b7d9dfc7e890f8d3d0f3e2774fa1d9f60001b6148b2565b6140387f77ab60c9d04dd56350233a7d65904ff1c1f646cf26816aac82fa7e65a663c6e660001b6148b2565b8060010160009054906101000a900460ff16614089576040517f08c379a000000000000000000000000000000000000000000000000000000000815260040161408090615089565b60405180910390fd5b6140b57fc7fc2b9fe9b1579ad6b23fd232ec12b305959cb5897815724179586b2632c98460001b6148b2565b6140e17ffe41e14f6c7f5f95d3fc99d600068692a5f9c35b8fba82c265cbb353b3db7f6060001b6148b2565b61410d7fe76494813517d913cf6af1d993e80443304d650355baa200260c7ba494188d0c60001b6148b2565b60008160010160006101000a81548160ff0219169083151502179055506141567f666476e564eb2bd24612b7d9e94b1e3ac2f86270019ce0c28973d4960cc446a960001b6148b2565b6141827fbf981a162ffbf3ea9339522075c8c7d3e8d924d30ae687abf2609b1f62be47e160001b6148b2565b60008160010160019054906101000a900473ffffffffffffffffffffffffffffffffffffffff1673ffffffffffffffffffffffffffffffffffffffff16600083600201546040516024016141d7929190615000565b6040516020818303038152906040527f32b95aa9000000000000000000000000000000000000000000000000000000007bffffffffffffffffffffffffffffffffffffffffffffffffffffffff19166020820180517bffffffffffffffffffffffffffffffffffffffffffffffffffffffff83818316178352505050506040516142619190614f06565b6000604051808303816000865af19150503d806000811461429e576040519150601f19603f3d011682016040523d82523d6000602084013e6142a3565b606091505b505090506142d37f6a4f6a4278a9ebbf23482c89b4fc18caf93d1b32f2ba65a95a795bd45df4bb7560001b6148b2565b6142ff7f5ddcc2aa6b8bfcde89284746cd732264b01553c2f134758c5e92f24247cad87e60001b6148b2565b61432b7fb54d7ca1ba20ad02fd301fa113da059ca14de07e20474775a1b61d1582b5b1dd60001b6148b2565b8061433557600080fd5b6143617fdb02778cca6ad4c24b3bbbbcc3e962d67c04b71bc833097cd8b142cd99d7327c60001b6148b2565b61438d7faf8879801e761cbbca3108269f0b57b899ccb00c03ea4b7e373eae4a25e8948a60001b6148b2565b6143b97fbac25ee5fce1ac2aa7d00aff33d0f8657484139789aae333971939db2a80aea860001b6148b2565b60008260010160019054906101000a900473ffffffffffffffffffffffffffffffffffffffff1673ffffffffffffffffffffffffffffffffffffffff168360040160009054906101000a900473ffffffffffffffffffffffffffffffffffffffff168460030160009054906101000a900473ffffffffffffffffffffffffffffffffffffffff16856002015460405160240161445793929190614f1d565b6040516020818303038152906040527fa2932c53000000000000000000000000000000000000000000000000000000007bffffffffffffffffffffffffffffffffffffffffffffffffffffffff19166020820180517bffffffffffffffffffffffffffffffffffffffffffffffffffffffff83818316178352505050506040516144e19190614f06565b6000604051808303816000865af19150503d806000811461451e576040519150601f19603f3d011682016040523d82523d6000602084013e614523565b606091505b505090506145537fd90466d723a7f6e9501fb15e27522d4fc0f4f24552deac77f121b016a63b821d60001b6148b2565b61457f7fb16f936a76f29981bf7f0e0ffac905ad0cb085b8a64f7eac1ec9e501fd27eb2b60001b6148b2565b6145ab7f160ce2bf2f9ffd98429d32a954c80a6600297c03d24701ad0fbf64afd65e5d2260001b6148b2565b806145b557600080fd5b6145e17fb02fa7d85a9f6f6d0c4bc997fea045884673629ec94e787a8e73de81244b0a8a60001b6148b2565b61460d7f534dd216062bdb9a6143587f5b5dbf9f0eb21fda28073762b72d9279c655b60260001b6148b2565b6146397ffe29f2c69b9382a52bccf29ee09c7431409f373cc5e745b3147abe5e52ff028f60001b6148b2565b61469c6040518060400160405280601f81526020017f52656e74657220416464726573732046726f6d20436f6e74726163742d3e20008152508460040160009054906101000a900473ffffffffffffffffffffffffffffffffffffffff166148c3565b6146c87f8e68dc93ad23870a3aba552fe43927d7129fb09fab18d78062117ddc78d9193960001b6148b2565b6146f47fe6cfc0fb1165694ae22e70522f7f5d92cfe2295bffcd3f00af6a4e05c081c74b60001b6148b2565b6147576040518060400160405280601f81526020017f53656c6c657220416464726573732046726f6d20436f6e74726163742d3e20008152508460030160009054906101000a900473ffffffffffffffffffffffffffffffffffffffff166148c3565b6147837f1d08585a873244e4df75d38b190dd8068343fcb682aad0c96acb9f632e6e89ed60001b6148b2565b6147af7fde70f743830d73401b4d916b5b63b2a083fcee8b66167521d1317e9dc7fc391e60001b6148b2565b6147b960036149fb565b6147e57f5dd82069d9ed622f43fbfcba1579e3bb64d5c7958edd0165d934ae2d4857bcb660001b6148b2565b600660008581526020019081526020016000206000808201600090556001820160006101000a81549060ff02191690556001820160016101000a81549073ffffffffffffffffffffffffffffffffffffffff021916905560028201600090556003820160006101000a81549073ffffffffffffffffffffffffffffffffffffffff02191690556004820160006101000a81549073ffffffffffffffffffffffffffffffffffffffff0219169055600582016000905560068201600090555050505050600160008190555050565b50565b600081600001549050919050565b61495b82826040516024016148d9929190615029565b6040516020818303038152906040527f319af333000000000000000000000000000000000000000000000000000000007bffffffffffffffffffffffffffffffffffffffffffffffffffffffff19166020820180517bffffffffffffffffffffffffffffffffffffffffffffffffffffffff8381831617835250505050614a11565b5050565b6149f78282604051602401614975929190615059565b6040516020818303038152906040527f9710a9d0000000000000000000000000000000000000000000000000000000007bffffffffffffffffffffffffffffffffffffffffffffffffffffffff19166020820180517bffffffffffffffffffffffffffffffffffffffffffffffffffffffff8381831617835250505050614a11565b5050565b6001816000016000828254019250508190555050565b60008151905060006a636f6e736f6c652e6c6f679050602083016000808483855afa5050505050565b60405180610100016040528060008152602001600015158152602001600073ffffffffffffffffffffffffffffffffffffffff16815260200160008152602001600073ffffffffffffffffffffffffffffffffffffffff168152602001600073ffffffffffffffffffffffffffffffffffffffff16815260200160008152602001600081525090565b600081359050614ad2816155b5565b92915050565b600081519050614ae7816155b5565b92915050565b600081359050614afc816155cc565b92915050565b600060208284031215614b1457600080fd5b6000614b2284828501614ad8565b91505092915050565b60008060408385031215614b3e57600080fd5b6000614b4c85828601614ac3565b9250506020614b5d85828601614aed565b9150509250929050565b60008060008060808587031215614b7d57600080fd5b6000614b8b87828801614ac3565b9450506020614b9c87828801614aed565b9350506040614bad87828801614aed565b9250506060614bbe87828801614aed565b91505092959194509250565b600060208284031215614bdc57600080fd5b6000614bea84828501614aed565b91505092915050565b6000614bff8383614e46565b6101008301905092915050565b614c15816152ab565b82525050565b614c24816152ab565b82525050565b614c3381615299565b82525050565b614c4281615299565b82525050565b6000614c53826151b4565b614c5d81856151e2565b9350614c68836151a4565b8060005b83811015614c99578151614c808882614bf3565b9750614c8b836151d5565b925050600181019050614c6c565b5085935050505092915050565b614caf816152bd565b82525050565b614cbe816152bd565b82525050565b6000614ccf826151bf565b614cd981856151f3565b9350614ce98185602086016152f3565b80840191505092915050565b6000614d00826151ca565b614d0a81856151fe565b9350614d1a8185602086016152f3565b614d238161539e565b840191505092915050565b6000614d3b6012836151fe565b9150614d46826153af565b602082019050919050565b6000614d5e6040836151fe565b9150614d69826153d8565b604082019050919050565b6000614d816024836151fe565b9150614d8c82615427565b604082019050919050565b6000614da46024836151fe565b9150614daf82615476565b604082019050919050565b6000614dc7601f836151fe565b9150614dd2826154c5565b602082019050919050565b6000614dea601c836151fe565b9150614df5826154ee565b602082019050919050565b6000614e0d6023836151fe565b9150614e1882615517565b604082019050919050565b6000614e306021836151fe565b9150614e3b82615566565b604082019050919050565b61010082016000820151614e5d6000850182614ee8565b506020820151614e706020850182614ca6565b506040820151614e836040850182614c2a565b506060820151614e966060850182614ee8565b506080820151614ea96080850182614c0c565b5060a0820151614ebc60a0850182614c2a565b5060c0820151614ecf60c0850182614ee8565b5060e0820151614ee260e0850182614ee8565b50505050565b614ef1816152e9565b82525050565b614f00816152e9565b82525050565b6000614f128284614cc4565b915081905092915050565b6000606082019050614f326000830186614c39565b614f3f6020830185614c1b565b614f4c6040830184614ef7565b949350505050565b6000606082019050614f696000830186614c39565b614f766020830185614c39565b614f836040830184614ef7565b949350505050565b60006020820190508181036000830152614fa58184614c48565b905092915050565b600060a082019050614fc26000830188614cb5565b614fcf6020830187614c39565b614fdc6040830186614c39565b614fe96060830185614ef7565b614ff66080830184614ef7565b9695505050505050565b60006040820190506150156000830185614cb5565b6150226020830184614ef7565b9392505050565b600060408201905081810360008301526150438185614cf5565b90506150526020830184614c39565b9392505050565b600060408201905081810360008301526150738185614cf5565b90506150826020830184614ef7565b9392505050565b600060208201905081810360008301526150a281614d2e565b9050919050565b600060208201905081810360008301526150c281614d51565b9050919050565b600060208201905081810360008301526150e281614d74565b9050919050565b6000602082019050818103600083015261510281614d97565b9050919050565b6000602082019050818103600083015261512281614dba565b9050919050565b6000602082019050818103600083015261514281614ddd565b9050919050565b6000602082019050818103600083015261516281614e00565b9050919050565b6000602082019050818103600083015261518281614e23565b9050919050565b600060208201905061519e6000830184614ef7565b92915050565b6000819050602082019050919050565b600081519050919050565b600081519050919050565b600081519050919050565b6000602082019050919050565b600082825260208201905092915050565b600081905092915050565b600082825260208201905092915050565b600061521a826152e9565b9150615225836152e9565b9250827fffffffffffffffffffffffffffffffffffffffffffffffffffffffffffffffff0382111561525a5761525961536f565b5b828201905092915050565b6000615270826152e9565b915061527b836152e9565b92508282101561528e5761528d61536f565b5b828203905092915050565b60006152a4826152c9565b9050919050565b60006152b6826152c9565b9050919050565b60008115159050919050565b600073ffffffffffffffffffffffffffffffffffffffff82169050919050565b6000819050919050565b60005b838110156153115780820151818401526020810190506152f6565b83811115615320576000848401525b50505050565b6000615331826152e9565b91507fffffffffffffffffffffffffffffffffffffffffffffffffffffffffffffffff8214156153645761536361536f565b5b600182019050919050565b7f4e487b7100000000000000000000000000000000000000000000000000000000600052601160045260246000fd5b6000601f19601f8301169050919050565b7f4e4654206973206e6f74206f6e2072656e740000000000000000000000000000600082015250565b7f506c65617365207375626d6974207468652061736b696e67207072696365206960008201527f6e206f7264657220746f20636f6d706c65746520746865207075726368617365602082015250565b7f5072696365206d75737420626520657175616c20746f206c697374696e67207060008201527f7269636500000000000000000000000000000000000000000000000000000000602082015250565b7f5468697320546f6b656e204973204e6f7420417661696c61626c6520466f722060008201527f52656e7400000000000000000000000000000000000000000000000000000000602082015250565b7f5265656e7472616e637947756172643a207265656e7472616e742063616c6c00600082015250565b7f5072696365206d757374206265206174206c6561737420312077656900000000600082015250565b7f4f6e6c79204f776e65722043616e2041636365737320546869732046756e637460008201527f696f6e0000000000000000000000000000000000000000000000000000000000602082015250565b7f52656e7461626c654e46543a207468697320746f6b656e2069732072656e746560008201527f6400000000000000000000000000000000000000000000000000000000000000602082015250565b6155be81615299565b81146155c957600080fd5b50565b6155d5816152e9565b81146155e057600080fd5b5056fea2646970667358221220e6d893b7c3e82606623390d11090e2dea75b3f83b11e8d568d3d116f4eadd11864736f6c63430008040033",
  "linkReferences": {},
  "deployedLinkReferences": {}
}